{"abi":[{"type":"constructor","inputs":[{"name":"_attestationRegistry","type":"address","internalType":"address"}],"stateMutability":"nonpayable"},{"type":"function","name":"ERC8004_INTERFACE_ID","inputs":[],"outputs":[{"name":"","type":"bytes4","internalType":"bytes4"}],"stateMutability":"view"},{"type":"function","name":"ERC8004_VERSION","inputs":[],"outputs":[{"name":"","type":"string","internalType":"string"}],"stateMutability":"view"},{"type":"function","name":"VERSION","inputs":[],"outputs":[{"name":"","type":"uint256","internalType":"uint256"}],"stateMutability":"view"},{"type":"function","name":"addCapability","inputs":[{"name":"agentAddress","type":"address","internalType":"address"},{"name":"capabilityId","type":"string","internalType":"string"},{"name":"name","type":"string","internalType":"string"},{"name":"description","type":"string","internalType":"string"},{"name":"capType","type":"uint8","internalType":"enum AgentCapabilityRegistry.CapabilityType"},{"name":"modelIds","type":"string[]","internalType":"string[]"},{"name":"endpointURI","type":"string","internalType":"string"},{"name":"x402Enabled","type":"bool","internalType":"bool"},{"name":"pricePerCallWei","type":"uint256","internalType":"uint256"},{"name":"attestationRequired","type":"bool","internalType":"bool"}],"outputs":[],"stateMutability":"nonpayable"},{"type":"function","name":"agentCapabilityIds","inputs":[{"name":"","type":"address","internalType":"address"},{"name":"","type":"uint256","internalType":"uint256"}],"outputs":[{"name":"","type":"string","internalType":"string"}],"stateMutability":"view"},{"type":"function","name":"agentURI","inputs":[{"name":"agentAddress","type":"address","internalType":"address"}],"outputs":[{"name":"","type":"string","internalType":"string"}],"stateMutability":"view"},{"type":"function","name":"agents","inputs":[{"name":"","type":"address","internalType":"address"}],"outputs":[{"name":"agentAddress","type":"address","internalType":"address"},{"name":"name","type":"string","internalType":"string"},{"name":"description","type":"string","internalType":"string"},{"name":"metadataURI","type":"string","internalType":"string"},{"name":"owner","type":"address","internalType":"address"},{"name":"registeredAt","type":"uint256","internalType":"uint256"},{"name":"lastActiveAt","type":"uint256","internalType":"uint256"},{"name":"active","type":"bool","internalType":"bool"},{"name":"reputationScore","type":"uint256","internalType":"uint256"},{"name":"totalAttestations","type":"uint256","internalType":"uint256"}],"stateMutability":"view"},{"type":"function","name":"attestationRegistry","inputs":[],"outputs":[{"name":"","type":"address","internalType":"address"}],"stateMutability":"view"},{"type":"function","name":"capabilities","inputs":[{"name":"","type":"address","internalType":"address"},{"name":"","type":"string","internalType":"string"}],"outputs":[{"name":"capabilityId","type":"string","internalType":"string"},{"name":"name","type":"string","internalType":"string"},{"name":"description","type":"string","internalType":"string"},{"name":"capType","type":"uint8","internalType":"enum AgentCapabilityRegistry.CapabilityType"},{"name":"endpointURI","type":"string","internalType":"string"},{"name":"x402Enabled","type":"bool","internalType":"bool"},{"name":"pricePerCallWei","type":"uint256","internalType":"uint256"},{"name":"attestationRequired","type":"bool","internalType":"bool"},{"name":"active","type":"bool","internalType":"bool"},{"name":"addedAt","type":"uint256","internalType":"uint256"}],"stateMutability":"view"},{"type":"function","name":"deactivateCapability","inputs":[{"name":"agentAddress","type":"address","internalType":"address"},{"name":"capabilityId","type":"string","internalType":"string"}],"outputs":[],"stateMutability":"nonpayable"},{"type":"function","name":"getAgentCapabilities","inputs":[{"name":"agentAddress","type":"address","internalType":"address"}],"outputs":[{"name":"","type":"string[]","internalType":"string[]"}],"stateMutability":"view"},{"type":"function","name":"getCapability","inputs":[{"name":"agentAddress","type":"address","internalType":"address"},{"name":"capabilityId","type":"string","internalType":"string"}],"outputs":[{"name":"","type":"tuple","internalType":"struct AgentCapabilityRegistry.Capability","components":[{"name":"capabilityId","type":"string","internalType":"string"},{"name":"name","type":"string","internalType":"string"},{"name":"description","type":"string","internalType":"string"},{"name":"capType","type":"uint8","internalType":"enum AgentCapabilityRegistry.CapabilityType"},{"name":"modelIds","type":"string[]","internalType":"string[]"},{"name":"endpointURI","type":"string","internalType":"string"},{"name":"x402Enabled","type":"bool","internalType":"bool"},{"name":"pricePerCallWei","type":"uint256","internalType":"uint256"},{"name":"attestationRequired","type":"bool","internalType":"bool"},{"name":"active","type":"bool","internalType":"bool"},{"name":"addedAt","type":"uint256","internalType":"uint256"}]}],"stateMutability":"view"},{"type":"function","name":"getEndorsers","inputs":[{"name":"agentAddress","type":"address","internalType":"address"}],"outputs":[{"name":"","type":"address[]","internalType":"address[]"}],"stateMutability":"view"},{"type":"function","name":"getTrustLevel","inputs":[{"name":"from","type":"address","internalType":"address"},{"name":"to","type":"address","internalType":"address"}],"outputs":[{"name":"exists","type":"bool","internalType":"bool"},{"name":"level","type":"uint256","internalType":"uint256"}],"stateMutability":"view"},{"type":"function","name":"grantTrust","inputs":[{"name":"toAgent","type":"address","internalType":"address"},{"name":"trustLevel","type":"uint256","internalType":"uint256"},{"name":"reason","type":"string","internalType":"string"}],"outputs":[],"stateMutability":"nonpayable"},{"type":"function","name":"owner","inputs":[],"outputs":[{"name":"","type":"address","internalType":"address"}],"stateMutability":"view"},{"type":"function","name":"registerAgent","inputs":[{"name":"agentAddress","type":"address","internalType":"address"},{"name":"name","type":"string","internalType":"string"},{"name":"description","type":"string","internalType":"string"},{"name":"metadataURI","type":"string","internalType":"string"}],"outputs":[],"stateMutability":"nonpayable"},{"type":"function","name":"revokeTrust","inputs":[{"name":"toAgent","type":"address","internalType":"address"}],"outputs":[],"stateMutability":"nonpayable"},{"type":"function","name":"totalAgents","inputs":[],"outputs":[{"name":"","type":"uint256","internalType":"uint256"}],"stateMutability":"view"},{"type":"function","name":"trustLinks","inputs":[{"name":"","type":"address","internalType":"address"},{"name":"","type":"address","internalType":"address"}],"outputs":[{"name":"from","type":"address","internalType":"address"},{"name":"to","type":"address","internalType":"address"},{"name":"trustLevel","type":"uint256","internalType":"uint256"},{"name":"reason","type":"string","internalType":"string"},{"name":"createdAt","type":"uint256","internalType":"uint256"},{"name":"active","type":"bool","internalType":"bool"}],"stateMutability":"view"},{"type":"function","name":"trustedBy","inputs":[{"name":"","type":"address","internalType":"address"},{"name":"","type":"uint256","internalType":"uint256"}],"outputs":[{"name":"","type":"address","internalType":"address"}],"stateMutability":"view"},{"type":"function","name":"trusts","inputs":[{"name":"","type":"address","internalType":"address"},{"name":"","type":"uint256","internalType":"uint256"}],"outputs":[{"name":"","type":"address","internalType":"address"}],"stateMutability":"view"},{"type":"function","name":"updateReputation","inputs":[{"name":"agentAddress","type":"address","internalType":"address"},{"name":"delta","type":"int256","internalType":"int256"},{"name":"attestationsAdded","type":"uint256","internalType":"uint256"}],"outputs":[],"stateMutability":"nonpayable"},{"type":"event","name":"AgentDeactivated","inputs":[{"name":"agentAddress","type":"address","indexed":true,"internalType":"address"}],"anonymous":false},{"type":"event","name":"AgentRegistered","inputs":[{"name":"agentAddress","type":"address","indexed":true,"internalType":"address"},{"name":"owner","type":"address","indexed":true,"internalType":"address"},{"name":"name","type":"string","indexed":false,"internalType":"string"},{"name":"metadataURI","type":"string","indexed":false,"internalType":"string"}],"anonymous":false},{"type":"event","name":"CapabilityAdded","inputs":[{"name":"agentAddress","type":"address","indexed":true,"internalType":"address"},{"name":"capabilityId","type":"string","indexed":false,"internalType":"string"},{"name":"capType","type":"uint8","indexed":false,"internalType":"enum AgentCapabilityRegistry.CapabilityType"},{"name":"x402Enabled","type":"bool","indexed":false,"internalType":"bool"}],"anonymous":false},{"type":"event","name":"CapabilityDeactivated","inputs":[{"name":"agentAddress","type":"address","indexed":true,"internalType":"address"},{"name":"capabilityId","type":"string","indexed":false,"internalType":"string"}],"anonymous":false},{"type":"event","name":"CapabilityUpdated","inputs":[{"name":"agentAddress","type":"address","indexed":true,"internalType":"address"},{"name":"capabilityId","type":"string","indexed":false,"internalType":"string"}],"anonymous":false},{"type":"event","name":"ReputationUpdated","inputs":[{"name":"agentAddress","type":"address","indexed":true,"internalType":"address"},{"name":"newScore","type":"uint256","indexed":false,"internalType":"uint256"}],"anonymous":false},{"type":"event","name":"TrustGranted","inputs":[{"name":"from","type":"address","indexed":true,"internalType":"address"},{"name":"to","type":"address","indexed":true,"internalType":"address"},{"name":"trustLevel","type":"uint256","indexed":false,"internalType":"uint256"}],"anonymous":false},{"type":"event","name":"TrustRevoked","inputs":[{"name":"from","type":"address","indexed":true,"internalType":"address"},{"name":"to","type":"address","indexed":true,"internalType":"address"}],"anonymous":false},{"type":"error","name":"AgentAlreadyRegistered","inputs":[]},{"type":"error","name":"AgentNotFound","inputs":[]},{"type":"error","name":"CapabilityAlreadyExists","inputs":[]},{"type":"error","name":"CapabilityNotFound","inputs":[]},{"type":"error","name":"InvalidTrustLevel","inputs":[]},{"type":"error","name":"NotAgentOwner","inputs":[]},{"type":"error","name":"NotOwner","inputs":[]},{"type":"error","name":"ZeroAddress","inputs":[]}],"bytecode":{"object":"0x608034609257601f61226e38819003918201601f19168301916001600160401b03831184841017609657808492602094604052833981010312609257516001600160a01b038116908190036092578015608357600780546001600160a01b03199081163317909155600680549091169190911790556040516121c390816100ab8239f35b63d92e233d60e01b5f5260045ffd5b5f80fd5b634e487b7160e01b5f52604160045260245ffdfe60806040526004361015610011575f80fd5b5f3560e01c80630110170614611c5a57806310bdd11b1461131f57806313cbef52146112d6578063205d88ef1461120c5780632fedbe52146111715780633582c451146110b957806350ee07b21461107f57806369f1324d14610c0057806370f554d314610abe57806373aa4abf146108565780637e4a09361461080f5780638da5cb5b146107e7578063afb3543914610785578063c505371214610768578063c77541db146104c8578063c8f15f071461041b578063cc8f27b114610355578063db9462d4146102f2578063e81702b0146102d2578063ea2cf90114610252578063ed6d73f91461022a578063fd66091e146101355763ffa1ad7414610116575f80fd5b34610131575f36600319011261013157602060405160018152f35b5f80fd5b34610131576020366003190112610131576001600160a01b03610156611dd1565b165f9081526020818152604090912080546001600160a01b03169061017d60018201611f92565b61018960028301611f92565b9161019660038201611f92565b9260018060a01b036004830154169360058301546102036006850154926101f560ff600788015416956101e7600960088a0154990154996101406040519e8f9e8f90815201526101408d0190611e96565b908b820360408d0152611e96565b9089820360608b0152611e96565b95608088015260a087015260c0860152151560e08501526101008401526101208301520390f35b34610131575f366003190112610131576006546040516001600160a01b039091168152602090f35b346101315760403660031901126101315761026b611dd1565b6001600160a01b03165f9081526002602052604090208054602435908110156101315761029791611e2a565b6102bf576102a76102bb91611f92565b604051918291602083526020830190611e96565b0390f35b634e487b7160e01b5f525f60045260245ffd5b34610131575f3660031901126101315760405161200160f21b8152602090f35b346101315760403660031901126101315761030b611dd1565b610313611de7565b9060018060a01b03165f52600360205260405f209060018060a01b03165f526020526040805f20600260ff600583015416910154825191151582526020820152f35b34610131576020366003190112610131576001600160a01b03610376611dd1565b165f52600460205260405f20604051806020835491828152019081935f5260205f20905f5b8181106103fc57505050816103b1910382611ed6565b604051918291602083019060208452518091526040830191905f5b8181106103da575050500390f35b82516001600160a01b03168452859450602093840193909201916001016103cc565b82546001600160a01b031684526020909301926001928301920161039b565b3461013157604036600319011261013157610434611dd1565b61043c611de7565b6001600160a01b039182165f90815260036020818152604080842094861684529390529190208054600182015460028301549085169491909116926104b790610486908401611f92565b60ff60056004860154950154169260405196879687526020870152604086015260c0606086015260c0850190611e96565b916080840152151560a08301520390f35b34610131576060366003190112610131576104e1611dd1565b6024356044356001600160401b03811161013157610503903690600401611dfd565b8293919315801561075e575b61074f5760018060a01b03821693845f525f602052600560405f20015415610740576040519160c083018381106001600160401b0382111761072c5760405233835261056b602084019287845260408501928784523691611ef7565b606084019081524260808501908152600160a08601818152335f9081526003602081815260408084208e8552909152909120975188546001600160a01b03199081166001600160a01b03928316178a559751938901805490981693169290921790955592516002860155905180519192850191906001600160401b03821161072c57610601826105fb8554611f5a565b8561208a565b602090601f83116001146106bc579261063e8361065d97946106839a9997946005975f926106b1575b50508160011b915f199060031b1c19161790565b90555b51600484015551151591019060ff801983541691151516179055565b835f5260046020526106723360405f2061214c565b335f52600560205260405f2061214c565b6040519081527f419d789da205b5e61b292ac17ce4f2d4625406a41586929ece2fac73774359a460203392a3005b015190508d8061062a565b90601f19831691845f52815f20925f5b81811061071457509361068399989693600596936001938361065d9b98106106fc575b505050811b019055610641565b01515f1960f88460031b161c191690558c80806106ef565b929360206001819287860151815501950193016106cc565b634e487b7160e01b5f52604160045260245ffd5b63e93ba22360e01b5f5260045ffd5b630c6e5beb60e11b5f5260045ffd5b506064831161050f565b34610131575f366003190112610131576020600854604051908152f35b346101315760403660031901126101315761079e611dd1565b6001600160a01b03165f90815260056020526040902080546024359190821015610131576020916107ce91611e2a565b905460405160039290921b1c6001600160a01b03168152f35b34610131575f366003190112610131576007546040516001600160a01b039091168152602090f35b34610131575f366003190112610131576102bb604051610830604082611ed6565b60058152640302e312e360dc1b6020820152604051918291602083526020830190611e96565b346101315761086436611e53565b9160405161087181611eba565b6060815260208101606090526040810160609052606081015f9052608081016060905260a081016060905260c081015f905260e081015f905261010081015f905261012081015f9052610140015f9052600160a01b60019003165f52600160205260405f2082604051938493843782019081520360200190206040516108f681611eba565b6108ff82611f92565b815261090d60018301611f92565b6020820190815261092060028401611f92565b9060408301918252600384015460ff16916060840192610940908461204c565b61094c600486016120f7565b608085019081529461096060058201611f92565b9560a08601968752600682015460ff169460c08701951515865260078301549160e0880192835260088401549461010089019460ff8716151586526101208a019660081c60ff161515875260090154966101408a019788526040519960208b525160208b0161016090526101808b016109d891611e96565b90518a8203601f190160408c01526109f09190611e96565b9051898203601f190160608b0152610a089190611e96565b915160808901610a1791612032565b5190601f198882030160a0890152815180825260208201918160051b810160200193602001925f915b838310610a91575050505050610a6490879851601f198983030160c08a0152611e96565b9451151560e087015251610100860152511515610120850152511515610140840152516101608301520390f35b9091929394602080610aaf600193601f198682030187528951611e96565b97019301930191939290610a40565b3461013157604036600319011261013157610ad7611dd1565b6024356001600160401b03811161013157602091610afa83923690600401611f3c565b9060018060a01b03165f526001825260405f20604051938285935191829101845e820190815203019020610b9f610b3082611f92565b91610b3d60018201611f92565b9260ff610b4c60028401611f92565b928160038201541693610bd3610b6460058401611f92565b958460068501541696610bc6610bbb600787015495610bad600960088a01549901549a6040519e8f9e8f926101408452610140840190611e96565b916020818403910152611e96565b8c810360408e015290611e96565b9260608b0190612032565b88820360808a0152611e96565b94151560a087015260c0860152818116151560e086015260081c1615156101008401526101208301520390f35b3461013157608036600319011261013157610c19611dd1565b6024356001600160401b03811161013157610c38903690600401611dfd565b6044356001600160401b03811161013157610c57903690600401611dfd565b9290916064356001600160401b03811161013157610c79903690600401611dfd565b93909560018060a01b031694855f525f602052600560405f20015461107057604051916101408301908382106001600160401b0383111761072c57610cd891604052878452610cc9368688611ef7565b92602085019384523691611ef7565b60408301908152610cea36878a611ef7565b606084019081526080840133815260a0850142815260c086019142835260e08701936001855261010088019561138887526101208901975f89528d5f525f60205260405f209960018060a01b039060018060a01b03905116166bffffffffffffffffffffffff60a01b8b5416178a5560018a0190518051906001600160401b03821161072c57610d7e826105fb8554611f5a565b602090601f831160011461100d57610dac92915f9183610f305750508160011b915f199060031b1c19161790565b90555b51805160028a01916001600160401b03821161072c57610dd3826105fb8554611f5a565b602090601f8311600114610faa57610e0192915f9183610f305750508160011b915f199060031b1c19161790565b90555b51805160038901916001600160401b03821161072c57610e28826105fb8554611f5a565b602090601f8311600114610f3b5782610eaf97959360099b9a99979593610e63935f92610f305750508160011b915f199060031b1c19161790565b90555b516004890180546001600160a01b039092166001600160a01b03199092169190911790555160058801555160068701555160078601805460ff191691151560ff16919091179055565b516008840155519101556008545f198114610f1c577f2a562efb52e7cec209321f57200606311256da6d2a1b19d44db7837a3209de28936001610f179201600855610f076040519485946040865260408601916120d7565b90838203602085015233976120d7565b0390a3005b634e487b7160e01b5f52601160045260245ffd5b015190505f8061062a565b90601f19831691845f52815f20925f5b818110610f925750926001928592610eaf9a989660099e9d9c9a989610610f7a575b505050811b019055610e66565b01515f1960f88460031b161c191690555f8080610f6d565b92936020600181928786015181550195019301610f4b565b90601f19831691845f52815f20925f5b818110610ff55750908460019594939210610fdd575b505050811b019055610e04565b01515f1960f88460031b161c191690555f8080610fd0565b92936020600181928786015181550195019301610fba565b90601f19831691845f52815f20925f5b8181106110585750908460019594939210611040575b505050811b019055610daf565b01515f1960f88460031b161c191690555f8080611033565b9293602060018192878601518155019501930161101d565b63704c69f760e11b5f5260045ffd5b34610131576020366003190112610131576001600160a01b036110a0611dd1565b165f525f6020526102bb6102a7600360405f2001611f92565b34610131576020366003190112610131576110d2611dd1565b335f52600360205260405f2060018060a01b0382165f5260205260405f2060048101541561113557600501805460ff191690556001600160a01b0316337fa1673fe49d4b8e481c52acc49aaf59068bb73ef73a77b34f77646c1078cf135c5f80a3005b60405162461bcd60e51b81526020600482015260146024820152734e6f207472757374206c696e6b2065786973747360601b6044820152606490fd5b34610131576020366003190112610131576001600160a01b03611192611dd1565b165f5260026020526111a660405f206120f7565b6040518091602082016020835281518091526040830190602060408260051b8601019301915f905b8282106111dd57505050500390f35b919360019193955060206111fc8192603f198a82030186528851611e96565b96019201920185949391926111ce565b346101315761121a36611e53565b6001600160a01b039283165f8181526020819052604090206004015490939192911633036112c757825f52600160205260405f20602060405180928585833785820190815203019020916009830154156112b85760087f4dc394c9c2a744f01cd7ecc77ac0446f2c907fd3633385d9a6079ed631501bb2930161ff001981541690556112b36040519283926020845260208401916120d7565b0390a2005b635ad384df60e11b5f5260045ffd5b630e41dcbf60e21b5f5260045ffd5b34610131576040366003190112610131576112ef611dd1565b6001600160a01b03165f90815260046020526040902080546024359190821015610131576020916107ce91611e2a565b346101315761014036600319011261013157611339611dd1565b6024356001600160401b03811161013157611358903690600401611dfd565b906044356001600160401b03811161013157611378903690600401611dfd565b6064939193356001600160401b0381116101315761139a903690600401611dfd565b60066084969296351015610131576001600160401b0360a435116101315736602360a4350112156101315760a43560040135916001600160401b038311610131573660248460051b60a4350101116101315760c4356001600160401b0381116101315761140b903690600401611dfd565b909160e435988915158a036101315761012435948515158603610131576001600160a01b038c165f90815260208190526040902060058101541561074057600401546001600160a01b031633036112c75760018060a01b038c165f52600160205260098960208c60405f2060405193849283378d8201908152030190200154611c4b576114b66114c293604051996114a28b611eba565b6114ad368d8f611ef7565b8b523691611ef7565b60208901523691611ef7565b60408601526114d66084356060870161204c565b6114df84612058565b936114ed6040519586611ed6565b80855260a43560240190602086015b60248260051b60a43501018310611c16575050509061152391608086019485523691611ef7565b60a0840190815260c08401871515815260e0850190610104358252610100860193151584526101208601926001845261014087019542875260018060a01b038c165f5260016020528860208b60405f2060405193849283378c8201908152030190209780518051906001600160401b03821161072c576115ad826115a78d54611f5a565b8d61208a565b602090601f8311600114611bb3576115db92915f9183610f305750508160011b915f199060031b1c19161790565b89555b6001890160208201518051906001600160401b03821161072c57611606826105fb8554611f5a565b602090601f8311600114611b505761163492915f9183610f305750508160011b915f199060031b1c19161790565b90555b6002890160408201518051906001600160401b03821161072c5761165f826105fb8554611f5a565b602090601f8311600114611aed5761168d92915f9183610f305750508160011b915f199060031b1c19161790565b90555b606060038a019101516006811015611ad95760ff80198354169116179055600488019051805190600160401b821161072c578254828455808310611a5b575b50602001915f5260205f20915f905b82821061198657505050506005870190518051906001600160401b03821161072c5761170e826105fb8554611f5a565b602090601f8311600114611918578260099998979695936117639593611748935f92610f305750508160011b915f199060031b1c19161790565b90555b511515600688019060ff801983541691151516179055565b5160078601556117866008860192511515839060ff801983541691151516179055565b51815461ff00191690151560081b61ff0016179055519101556001600160a01b0384165f9081526002602052604090208054600160401b81101561072c576117d391600182018155611e2a565b9490946102bf576001600160401b03821161072c576117fc826117f68754611f5a565b8761208a565b5f94601f83116001146118965761184b83807ff35871e313f4e5934765ba04c5ca14af70ecb6ee01e9e23beb8aa21f569da08c97985f9161188b575b508160011b915f199060031b1c19161790565b90555b6118656040519384936060855260608501916120d7565b9461187560208401608435612032565b151560408301526001600160a01b0316930390a2005b905086013589611838565b601f19831695815f5260205f20905f5b8881106119005750847ff35871e313f4e5934765ba04c5ca14af70ecb6ee01e9e23beb8aa21f569da08c9798106118e7575b5050600183811b01905561184e565b8501355f19600386901b60f8161c1916905586806118d8565b9091602060018192858a0135815501930191016118a6565b90601f19831691845f52815f20925f5b81811061196e575092600192859260099c9b9a999896611763989610611956575b505050811b01905561174b565b01515f1960f88460031b161c191690558f8080611949565b92936020600181928786015181550195019301611928565b80518051906001600160401b03821161072c576119ad826119a78854611f5a565b8861208a565b602090601f83116001146119f257926119e3836001959460209487965f92610f305750508160011b915f199060031b1c19161790565b87555b019401910190926116de565b90601f19831691875f52815f20925f5b818110611a435750936020936001969387969383889510611a2b575b505050811b0187556119e6565b01515f1960f88460031b161c191690555f8080611a1e565b92936020600181928786015181550195019301611a02565b835f52828060205f20019103905f5b828110611a785750506116cf565b806001918301611a888154611f5a565b9081611a97575b505001611a6a565b81601f5f93118514611aad5750555b5f80611a8f565b81835260208320611ac991601f0160051c84190190860161206f565b8082528160208120915555611aa6565b634e487b7160e01b5f52602160045260245ffd5b90601f19831691845f52815f20925f5b818110611b385750908460019594939210611b20575b505050811b019055611690565b01515f1960f88460031b161c191690555f8080611b13565b92936020600181928786015181550195019301611afd565b90601f19831691845f52815f20925f5b818110611b9b5750908460019594939210611b83575b505050811b019055611637565b01515f1960f88460031b161c191690555f8080611b76565b92936020600181928786015181550195019301611b60565b90601f198316918c5f52815f20925f5b818110611bfe5750908460019594939210611be6575b505050811b0189556115de565b01515f1960f88460031b161c191690558f8080611bd9565b92936020600181928786015181550195019301611bc3565b8235906001600160401b0382116101315760208091611c3e60249485369160a4350101611f3c565b81520193019290506114fc565b63e288638f60e01b5f5260045ffd5b3461013157606036600319011261013157611c73611dd1565b6024359060018060a01b036007541633141580611dbc575b611dad5760018060a01b031690815f525f60205260405f2090600582015415610740575f8112611d2657600882602092611cea837ffc577563f1b9a0461e24abef1e1fcc0d33d3d881f20b5df6dda59de4aae2c821960191825461203f565b612710811115611d205750612710905b555b60098101611d0d604435825461203f565b90554260068201550154604051908152a2005b90611cfa565b600160ff1b8114610f1c576008820190815490805f0382115f14611d7d578101908111610f1c577ffc577563f1b9a0461e24abef1e1fcc0d33d3d881f20b5df6dda59de4aae2c82192602092600892905b55611cfc565b505060087ffc577563f1b9a0461e24abef1e1fcc0d33d3d881f20b5df6dda59de4aae2c821926020925f90611d77565b6330cd747160e01b5f5260045ffd5b506006546001600160a01b0316331415611c8b565b600435906001600160a01b038216820361013157565b602435906001600160a01b038216820361013157565b9181601f84011215610131578235916001600160401b038311610131576020838186019501011161013157565b8054821015611e3f575f5260205f2001905f90565b634e487b7160e01b5f52603260045260245ffd5b906040600319830112610131576004356001600160a01b03811681036101315791602435906001600160401b03821161013157611e9291600401611dfd565b9091565b805180835260209291819084018484015e5f828201840152601f01601f1916010190565b61016081019081106001600160401b0382111761072c57604052565b90601f801991011681019081106001600160401b0382111761072c57604052565b9291926001600160401b03821161072c5760405191611f20601f8201601f191660200184611ed6565b829481845281830111610131578281602093845f960137010152565b9080601f8301121561013157816020611f5793359101611ef7565b90565b90600182811c92168015611f88575b6020831014611f7457565b634e487b7160e01b5f52602260045260245ffd5b91607f1691611f69565b9060405191825f825492611fa584611f5a565b80845293600181169081156120105750600114611fcc575b50611fca92500383611ed6565b565b90505f9291925260205f20905f915b818310611ff4575050906020611fca928201015f611fbd565b6020919350806001915483858901015201910190918492611fdb565b905060209250611fca94915060ff191682840152151560051b8201015f611fbd565b906006821015611ad95752565b91908201809211610f1c57565b6006821015611ad95752565b6001600160401b03811161072c5760051b60200190565b5f5b82811061207d57505050565b5f82820155600101612071565b91601f821161209857505050565b8082116120a457505050565b611fca925f5260205f20916020601f830160051c92106120cf575b601f82910160051c03910161206f565b5f91506120bf565b908060209392818452848401375f828201840152601f01601f1916010190565b90815461210381612058565b926121116040519485611ed6565b81845260208401905f5260205f205f915b83831061212f5750505050565b60016020819261213e85611f92565b815201920192019190612122565b8054600160401b81101561072c5761216991600182018155611e2a565b81546001600160a01b0393841660039290921b91821b9390911b191691909117905556fea2646970667358221220d134976ce65773b869a04b98a58a5f322ca08f93a50154acc02c630808d6833b64736f6c63430008230033","linkReferences":{}},"methodIdentifiers":{"ERC8004_INTERFACE_ID()":"e81702b0","ERC8004_VERSION()":"7e4a0936","VERSION()":"ffa1ad74","addCapability(address,string,string,string,uint8,string[],string,bool,uint256,bool)":"10bdd11b","agentCapabilityIds(address,uint256)":"ea2cf901","agentURI(address)":"50ee07b2","agents(address)":"fd66091e","attestationRegistry()":"ed6d73f9","capabilities(address,string)":"70f554d3","deactivateCapability(address,string)":"205d88ef","getAgentCapabilities(address)":"2fedbe52","getCapability(address,string)":"73aa4abf","getEndorsers(address)":"cc8f27b1","getTrustLevel(address,address)":"db9462d4","grantTrust(address,uint256,string)":"c77541db","owner()":"8da5cb5b","registerAgent(address,string,string,string)":"69f1324d","revokeTrust(address)":"3582c451","totalAgents()":"c5053712","trustLinks(address,address)":"c8f15f07","trustedBy(address,uint256)":"13cbef52","trusts(address,uint256)":"afb35439","updateReputation(address,int256,uint256)":"01101706"},"id":1}