{"abi":[{"type":"constructor","inputs":[],"stateMutability":"nonpayable"},{"type":"function","name":"VERSION","inputs":[],"outputs":[{"name":"","type":"uint256","internalType":"uint256"}],"stateMutability":"view"},{"type":"function","name":"attestationExists","inputs":[{"name":"","type":"bytes32","internalType":"bytes32"}],"outputs":[{"name":"","type":"bool","internalType":"bool"}],"stateMutability":"view"},{"type":"function","name":"attestations","inputs":[{"name":"","type":"bytes32","internalType":"bytes32"}],"outputs":[{"name":"modelHash","type":"bytes32","internalType":"bytes32"},{"name":"inputHash","type":"bytes32","internalType":"bytes32"},{"name":"outputHash","type":"bytes32","internalType":"bytes32"},{"name":"hardwareId","type":"bytes32","internalType":"bytes32"},{"name":"provider","type":"address","internalType":"address"},{"name":"timestamp","type":"uint256","internalType":"uint256"},{"name":"revoked","type":"bool","internalType":"bool"}],"stateMutability":"view"},{"type":"function","name":"deactivateProvider","inputs":[{"name":"provider","type":"address","internalType":"address"}],"outputs":[],"stateMutability":"nonpayable"},{"type":"function","name":"getProviderAttestations","inputs":[{"name":"provider","type":"address","internalType":"address"},{"name":"offset","type":"uint256","internalType":"uint256"},{"name":"limit","type":"uint256","internalType":"uint256"}],"outputs":[{"name":"","type":"bytes32[]","internalType":"bytes32[]"}],"stateMutability":"view"},{"type":"function","name":"isVerifiedProvider","inputs":[{"name":"provider","type":"address","internalType":"address"}],"outputs":[{"name":"","type":"bool","internalType":"bool"}],"stateMutability":"view"},{"type":"function","name":"owner","inputs":[],"outputs":[{"name":"","type":"address","internalType":"address"}],"stateMutability":"view"},{"type":"function","name":"providerAttestations","inputs":[{"name":"","type":"address","internalType":"address"},{"name":"","type":"uint256","internalType":"uint256"}],"outputs":[{"name":"","type":"bytes32","internalType":"bytes32"}],"stateMutability":"view"},{"type":"function","name":"providers","inputs":[{"name":"","type":"address","internalType":"address"}],"outputs":[{"name":"provider","type":"address","internalType":"address"},{"name":"name","type":"string","internalType":"string"},{"name":"teeType","type":"string","internalType":"string"},{"name":"publicKeyHash","type":"bytes32","internalType":"bytes32"},{"name":"attestationCount","type":"uint256","internalType":"uint256"},{"name":"registeredAt","type":"uint256","internalType":"uint256"},{"name":"active","type":"bool","internalType":"bool"}],"stateMutability":"view"},{"type":"function","name":"registerProvider","inputs":[{"name":"name","type":"string","internalType":"string"},{"name":"teeType","type":"string","internalType":"string"},{"name":"publicKeyHash","type":"bytes32","internalType":"bytes32"}],"outputs":[],"stateMutability":"nonpayable"},{"type":"function","name":"revokeAttestation","inputs":[{"name":"attestationId","type":"bytes32","internalType":"bytes32"}],"outputs":[],"stateMutability":"nonpayable"},{"type":"function","name":"submitAttestation","inputs":[{"name":"modelHash","type":"bytes32","internalType":"bytes32"},{"name":"inputHash","type":"bytes32","internalType":"bytes32"},{"name":"outputHash","type":"bytes32","internalType":"bytes32"},{"name":"hardwareId","type":"bytes32","internalType":"bytes32"}],"outputs":[{"name":"attestationId","type":"bytes32","internalType":"bytes32"}],"stateMutability":"nonpayable"},{"type":"function","name":"totalAttestations","inputs":[],"outputs":[{"name":"","type":"uint256","internalType":"uint256"}],"stateMutability":"view"},{"type":"function","name":"verify","inputs":[{"name":"attestationId","type":"bytes32","internalType":"bytes32"}],"outputs":[{"name":"valid","type":"bool","internalType":"bool"},{"name":"attestation","type":"tuple","internalType":"struct AttestationRegistry.Attestation","components":[{"name":"modelHash","type":"bytes32","internalType":"bytes32"},{"name":"inputHash","type":"bytes32","internalType":"bytes32"},{"name":"outputHash","type":"bytes32","internalType":"bytes32"},{"name":"hardwareId","type":"bytes32","internalType":"bytes32"},{"name":"provider","type":"address","internalType":"address"},{"name":"timestamp","type":"uint256","internalType":"uint256"},{"name":"revoked","type":"bool","internalType":"bool"}]}],"stateMutability":"view"},{"type":"function","name":"verifyByComponents","inputs":[{"name":"provider","type":"address","internalType":"address"},{"name":"modelHash","type":"bytes32","internalType":"bytes32"},{"name":"inputHash","type":"bytes32","internalType":"bytes32"},{"name":"outputHash","type":"bytes32","internalType":"bytes32"},{"name":"hardwareId","type":"bytes32","internalType":"bytes32"},{"name":"timestamp","type":"uint256","internalType":"uint256"},{"name":"nonce","type":"uint256","internalType":"uint256"}],"outputs":[{"name":"valid","type":"bool","internalType":"bool"},{"name":"attestationId","type":"bytes32","internalType":"bytes32"}],"stateMutability":"view"},{"type":"event","name":"AttestationRevoked","inputs":[{"name":"attestationId","type":"bytes32","indexed":true,"internalType":"bytes32"},{"name":"provider","type":"address","indexed":true,"internalType":"address"}],"anonymous":false},{"type":"event","name":"AttestationSubmitted","inputs":[{"name":"attestationId","type":"bytes32","indexed":true,"internalType":"bytes32"},{"name":"provider","type":"address","indexed":true,"internalType":"address"},{"name":"modelHash","type":"bytes32","indexed":false,"internalType":"bytes32"},{"name":"outputHash","type":"bytes32","indexed":false,"internalType":"bytes32"},{"name":"timestamp","type":"uint256","indexed":false,"internalType":"uint256"}],"anonymous":false},{"type":"event","name":"ProviderDeactivated","inputs":[{"name":"provider","type":"address","indexed":true,"internalType":"address"}],"anonymous":false},{"type":"event","name":"ProviderRegistered","inputs":[{"name":"provider","type":"address","indexed":true,"internalType":"address"},{"name":"name","type":"string","indexed":false,"internalType":"string"},{"name":"teeType","type":"string","indexed":false,"internalType":"string"}],"anonymous":false},{"type":"error","name":"AttestationAlreadyRevoked","inputs":[]},{"type":"error","name":"AttestationNotFound","inputs":[]},{"type":"error","name":"NotAttestationProvider","inputs":[]},{"type":"error","name":"NotOwner","inputs":[]},{"type":"error","name":"ProviderAlreadyRegistered","inputs":[]},{"type":"error","name":"ProviderInactive","inputs":[]},{"type":"error","name":"ProviderNotRegistered","inputs":[]}],"bytecode":{"object":"0x6080604052348015600e575f5ffd5b503360045f6101000a81548173ffffffffffffffffffffffffffffffffffffffff021916908373ffffffffffffffffffffffffffffffffffffffff160217905550611fbc8061005c5f395ff3fe608060405234801561000f575f5ffd5b50600436106100f3575f3560e01c80638da5cb5b11610095578063bba9dc6011610064578063bba9dc60146102c8578063bbfca677146102e4578063beba6f6a14610315578063ffa1ad7414610345576100f3565b80638da5cb5b14610214578063940992a3146102325780639fc0982f14610268578063a4352ff914610298576100f3565b8063516addb1116100d1578063516addb11461017957806351e0aa3d1461019557806360485742146101c557806375e36616146101e3576100f3565b80630787bc27146100f7578063259ed80e1461012d5780634d5e1da61461015d575b5f5ffd5b610111600480360381019061010c91906112a9565b610363565b604051610124979695949392919061139d565b60405180910390f35b610147600480360381019061014291906112a9565b6104d8565b6040516101549190611418565b60405180910390f35b6101776004803603810190610172919061145b565b610579565b005b610193600480360381019061018e91906114e7565b610714565b005b6101af60048036038101906101aa91906115a2565b6109a7565b6040516101bc91906116a9565b60405180910390f35b6101cd610b39565b6040516101da91906116c9565b60405180910390f35b6101fd60048036038101906101f8919061145b565b610b3f565b60405161020b92919061179b565b60405180910390f35b61021c610c66565b60405161022991906117c3565b60405180910390f35b61024c6004803603810190610247919061145b565b610c8b565b60405161025f97969594939291906117dc565b60405180910390f35b610282600480360381019061027d919061145b565b610cf3565b60405161028f9190611418565b60405180910390f35b6102b260048036038101906102ad9190611849565b610d10565b6040516102bf9190611887565b60405180910390f35b6102e260048036038101906102dd91906112a9565b610d3b565b005b6102fe60048036038101906102f991906118a0565b610e5e565b60405161030c92919061193d565b60405180910390f35b61032f600480360381019061032a9190611964565b610eef565b60405161033c9190611887565b60405180910390f35b61034d6111f4565b60405161035a91906116c9565b60405180910390f35b6001602052805f5260405f205f91509050805f015f9054906101000a900473ffffffffffffffffffffffffffffffffffffffff16908060010180546103a7906119f5565b80601f01602080910402602001604051908101604052809291908181526020018280546103d3906119f5565b801561041e5780601f106103f55761010080835404028352916020019161041e565b820191905f5260205f20905b81548152906001019060200180831161040157829003601f168201915b505050505090806002018054610433906119f5565b80601f016020809104026020016040519081016040528092919081815260200182805461045f906119f5565b80156104aa5780601f10610481576101008083540402835291602001916104aa565b820191905f5260205f20905b81548152906001019060200180831161048d57829003601f168201915b505050505090806003015490806004015490806005015490806006015f9054906101000a900460ff16905087565b5f5f60015f8473ffffffffffffffffffffffffffffffffffffffff1673ffffffffffffffffffffffffffffffffffffffff1681526020019081526020015f206005015414158015610572575060015f8373ffffffffffffffffffffffffffffffffffffffff1673ffffffffffffffffffffffffffffffffffffffff1681526020019081526020015f206006015f9054906101000a900460ff165b9050919050565b60035f8281526020019081526020015f205f9054906101000a900460ff166105cd576040517f120a2e7700000000000000000000000000000000000000000000000000000000815260040160405180910390fd5b5f5f5f8381526020019081526020015f2090503373ffffffffffffffffffffffffffffffffffffffff16816004015f9054906101000a900473ffffffffffffffffffffffffffffffffffffffff1673ffffffffffffffffffffffffffffffffffffffff1614610668576040517fa82ec4a500000000000000000000000000000000000000000000000000000000815260040160405180910390fd5b806006015f9054906101000a900460ff16156106b0576040517f10a0e42f00000000000000000000000000000000000000000000000000000000815260040160405180910390fd5b6001816006015f6101000a81548160ff0219169083151502179055503373ffffffffffffffffffffffffffffffffffffffff16827f59d1b98a5da8bbc1db92f7d8d2e21c3067da65edbe08f4ae23df11487ee4c8b060405160405180910390a35050565b5f60015f3373ffffffffffffffffffffffffffffffffffffffff1673ffffffffffffffffffffffffffffffffffffffff1681526020019081526020015f20600501541461078d576040517fda041bdf00000000000000000000000000000000000000000000000000000000815260040160405180910390fd5b6040518060e001604052803373ffffffffffffffffffffffffffffffffffffffff16815260200186868080601f0160208091040260200160405190810160405280939291908181526020018383808284375f81840152601f19601f82011690508083019250505050505050815260200184848080601f0160208091040260200160405190810160405280939291908181526020018383808284375f81840152601f19601f8201169050808301925050505050505081526020018281526020015f81526020014281526020016001151581525060015f3373ffffffffffffffffffffffffffffffffffffffff1673ffffffffffffffffffffffffffffffffffffffff1681526020019081526020015f205f820151815f015f6101000a81548173ffffffffffffffffffffffffffffffffffffffff021916908373ffffffffffffffffffffffffffffffffffffffff16021790555060208201518160010190816108f59190611c03565b50604082015181600201908161090b9190611c03565b50606082015181600301556080820151816004015560a0820151816005015560c0820151816006015f6101000a81548160ff0219169083151502179055509050503373ffffffffffffffffffffffffffffffffffffffff167f6b1aa1e318762b7b04f60cd1d318222049b2c70c1c7daad0af5276d5f3b2525a868686866040516109989493929190611d0c565b60405180910390a25050505050565b60605f60025f8673ffffffffffffffffffffffffffffffffffffffff1673ffffffffffffffffffffffffffffffffffffffff1681526020019081526020015f2090505f81805490509050808510610a4a575f67ffffffffffffffff811115610a1257610a11611a25565b5b604051908082528060200260200182016040528015610a405781602001602082028036833780820191505090505b5092505050610b32565b5f818587610a589190611d72565b11610a6e578486610a699190611d72565b610a70565b815b90505f8682610a7f9190611da5565b67ffffffffffffffff811115610a9857610a97611a25565b5b604051908082528060200260200182016040528015610ac65781602001602082028036833780820191505090505b5090505f8790505b82811015610b2957848181548110610ae957610ae8611dd8565b5b905f5260205f200154828983610aff9190611da5565b81518110610b1057610b0f611dd8565b5b6020026020010181815250508080600101915050610ace565b50809450505050505b9392505050565b60055481565b5f610b486111f9565b60035f8481526020019081526020015f205f9054906101000a900460ff16610b9c576040517f120a2e7700000000000000000000000000000000000000000000000000000000815260040160405180910390fd5b5f5f8481526020019081526020015f206040518060e00160405290815f8201548152602001600182015481526020016002820154815260200160038201548152602001600482015f9054906101000a900473ffffffffffffffffffffffffffffffffffffffff1673ffffffffffffffffffffffffffffffffffffffff1673ffffffffffffffffffffffffffffffffffffffff16815260200160058201548152602001600682015f9054906101000a900460ff16151515158152505090508060c00151159150915091565b60045f9054906101000a900473ffffffffffffffffffffffffffffffffffffffff1681565b5f602052805f5260405f205f91509050805f015490806001015490806002015490806003015490806004015f9054906101000a900473ffffffffffffffffffffffffffffffffffffffff1690806005015490806006015f9054906101000a900460ff16905087565b6003602052805f5260405f205f915054906101000a900460ff1681565b6002602052815f5260405f208181548110610d29575f80fd5b905f5260205f20015f91509150505481565b60045f9054906101000a900473ffffffffffffffffffffffffffffffffffffffff1673ffffffffffffffffffffffffffffffffffffffff163373ffffffffffffffffffffffffffffffffffffffff1614610dc1576040517f30cd747100000000000000000000000000000000000000000000000000000000815260040160405180910390fd5b5f60015f8373ffffffffffffffffffffffffffffffffffffffff1673ffffffffffffffffffffffffffffffffffffffff1681526020019081526020015f206006015f6101000a81548160ff0219169083151502179055508073ffffffffffffffffffffffffffffffffffffffff167f3584a4db7306d80246748a1c4bc6188505b8053684afee0c79670dade4db205c60405160405180910390a250565b5f5f88888888888888604051602001610e7d9796959493929190611e8a565b60405160208183030381529060405280519060200120905060035f8281526020019081526020015f205f9054906101000a900460ff16610ebf575f9150610ee3565b5f5f8281526020019081526020015f206006015f9054906101000a900460ff161591505b97509795505050505050565b5f5f60015f3373ffffffffffffffffffffffffffffffffffffffff1673ffffffffffffffffffffffffffffffffffffffff1681526020019081526020015f2090505f816005015403610f6d576040517fd5aef8c600000000000000000000000000000000000000000000000000000000815260040160405180910390fd5b806006015f9054906101000a900460ff16610fb4576040517f71d70ac000000000000000000000000000000000000000000000000000000000815260040160405180910390fd5b338686868642600554604051602001610fd39796959493929190611e8a565b6040516020818303038152906040528051906020012091506040518060e001604052808781526020018681526020018581526020018481526020013373ffffffffffffffffffffffffffffffffffffffff1681526020014281526020015f15158152505f5f8481526020019081526020015f205f820151815f01556020820151816001015560408201518160020155606082015181600301556080820151816004015f6101000a81548173ffffffffffffffffffffffffffffffffffffffff021916908373ffffffffffffffffffffffffffffffffffffffff16021790555060a0820151816005015560c0820151816006015f6101000a81548160ff021916908315150217905550905050600160035f8481526020019081526020015f205f6101000a81548160ff02191690831515021790555060025f3373ffffffffffffffffffffffffffffffffffffffff1673ffffffffffffffffffffffffffffffffffffffff1681526020019081526020015f2082908060018154018082558091505060019003905f5260205f20015f9091909190915055806004015f81548092919061117c90611f0a565b919050555060055f81548092919061119390611f0a565b91905055503373ffffffffffffffffffffffffffffffffffffffff16827f89df8775e5ee0d411764382ecec7b62175862a290fb745754a276aa4727eb60c8887426040516111e393929190611f51565b60405180910390a350949350505050565b600181565b6040518060e001604052805f81526020015f81526020015f81526020015f81526020015f73ffffffffffffffffffffffffffffffffffffffff1681526020015f81526020015f151581525090565b5f5ffd5b5f5ffd5b5f73ffffffffffffffffffffffffffffffffffffffff82169050919050565b5f6112788261124f565b9050919050565b6112888161126e565b8114611292575f5ffd5b50565b5f813590506112a38161127f565b92915050565b5f602082840312156112be576112bd611247565b5b5f6112cb84828501611295565b91505092915050565b6112dd8161126e565b82525050565b5f81519050919050565b5f82825260208201905092915050565b8281835e5f83830152505050565b5f601f19601f8301169050919050565b5f611325826112e3565b61132f81856112ed565b935061133f8185602086016112fd565b6113488161130b565b840191505092915050565b5f819050919050565b61136581611353565b82525050565b5f819050919050565b61137d8161136b565b82525050565b5f8115159050919050565b61139781611383565b82525050565b5f60e0820190506113b05f83018a6112d4565b81810360208301526113c2818961131b565b905081810360408301526113d6818861131b565b90506113e5606083018761135c565b6113f26080830186611374565b6113ff60a0830185611374565b61140c60c083018461138e565b98975050505050505050565b5f60208201905061142b5f83018461138e565b92915050565b61143a81611353565b8114611444575f5ffd5b50565b5f8135905061145581611431565b92915050565b5f602082840312156114705761146f611247565b5b5f61147d84828501611447565b91505092915050565b5f5ffd5b5f5ffd5b5f5ffd5b5f5f83601f8401126114a7576114a6611486565b5b8235905067ffffffffffffffff8111156114c4576114c361148a565b5b6020830191508360018202830111156114e0576114df61148e565b5b9250929050565b5f5f5f5f5f60608688031215611500576114ff611247565b5b5f86013567ffffffffffffffff81111561151d5761151c61124b565b5b61152988828901611492565b9550955050602086013567ffffffffffffffff81111561154c5761154b61124b565b5b61155888828901611492565b9350935050604061156b88828901611447565b9150509295509295909350565b6115818161136b565b811461158b575f5ffd5b50565b5f8135905061159c81611578565b92915050565b5f5f5f606084860312156115b9576115b8611247565b5b5f6115c686828701611295565b93505060206115d78682870161158e565b92505060406115e88682870161158e565b9150509250925092565b5f81519050919050565b5f82825260208201905092915050565b5f819050602082019050919050565b61162481611353565b82525050565b5f611635838361161b565b60208301905092915050565b5f602082019050919050565b5f611657826115f2565b61166181856115fc565b935061166c8361160c565b805f5b8381101561169c578151611683888261162a565b975061168e83611641565b92505060018101905061166f565b5085935050505092915050565b5f6020820190508181035f8301526116c1818461164d565b905092915050565b5f6020820190506116dc5f830184611374565b92915050565b6116eb8161126e565b82525050565b6116fa8161136b565b82525050565b61170981611383565b82525050565b60e082015f8201516117235f85018261161b565b506020820151611736602085018261161b565b506040820151611749604085018261161b565b50606082015161175c606085018261161b565b50608082015161176f60808501826116e2565b5060a082015161178260a08501826116f1565b5060c082015161179560c0850182611700565b50505050565b5f610100820190506117af5f83018561138e565b6117bc602083018461170f565b9392505050565b5f6020820190506117d65f8301846112d4565b92915050565b5f60e0820190506117ef5f83018a61135c565b6117fc602083018961135c565b611809604083018861135c565b611816606083018761135c565b61182360808301866112d4565b61183060a0830185611374565b61183d60c083018461138e565b98975050505050505050565b5f5f6040838503121561185f5761185e611247565b5b5f61186c85828601611295565b925050602061187d8582860161158e565b9150509250929050565b5f60208201905061189a5f83018461135c565b92915050565b5f5f5f5f5f5f5f60e0888a0312156118bb576118ba611247565b5b5f6118c88a828b01611295565b97505060206118d98a828b01611447565b96505060406118ea8a828b01611447565b95505060606118fb8a828b01611447565b945050608061190c8a828b01611447565b93505060a061191d8a828b0161158e565b92505060c061192e8a828b0161158e565b91505092959891949750929550565b5f6040820190506119505f83018561138e565b61195d602083018461135c565b9392505050565b5f5f5f5f6080858703121561197c5761197b611247565b5b5f61198987828801611447565b945050602061199a87828801611447565b93505060406119ab87828801611447565b92505060606119bc87828801611447565b91505092959194509250565b7f4e487b71000000000000000000000000000000000000000000000000000000005f52602260045260245ffd5b5f6002820490506001821680611a0c57607f821691505b602082108103611a1f57611a1e6119c8565b5b50919050565b7f4e487b71000000000000000000000000000000000000000000000000000000005f52604160045260245ffd5b5f819050815f5260205f209050919050565b5f6020601f8301049050919050565b5f82821b905092915050565b5f60088302611aae7fffffffffffffffffffffffffffffffffffffffffffffffffffffffffffffffff82611a73565b611ab88683611a73565b95508019841693508086168417925050509392505050565b5f819050919050565b5f611af3611aee611ae98461136b565b611ad0565b61136b565b9050919050565b5f819050919050565b611b0c83611ad9565b611b20611b1882611afa565b848454611a7f565b825550505050565b5f5f905090565b611b37611b28565b611b42818484611b03565b505050565b5f5b82811015611b6857611b5d5f828401611b2f565b600181019050611b49565b505050565b601f821115611bbb5782821115611bba57611b8781611a52565b611b9083611a64565b611b9985611a64565b6020861015611ba6575f90505b808301611bb582840382611b47565b505050505b5b505050565b5f82821c905092915050565b5f611bdb5f1984600802611bc0565b1980831691505092915050565b5f611bf38383611bcc565b9150826002028217905092915050565b611c0c826112e3565b67ffffffffffffffff811115611c2557611c24611a25565b5b611c2f82546119f5565b611c3a828285611b6d565b5f60209050601f831160018114611c6b575f8415611c59578287015190505b611c638582611be8565b865550611cca565b601f198416611c7986611a52565b5f5b82811015611ca057848901518255600182019150602085019450602081019050611c7b565b86831015611cbd5784890151611cb9601f891682611bcc565b8355505b6001600288020188555050505b505050505050565b828183375f83830152505050565b5f611ceb83856112ed565b9350611cf8838584611cd2565b611d018361130b565b840190509392505050565b5f6040820190508181035f830152611d25818688611ce0565b90508181036020830152611d3a818486611ce0565b905095945050505050565b7f4e487b71000000000000000000000000000000000000000000000000000000005f52601160045260245ffd5b5f611d7c8261136b565b9150611d878361136b565b9250828201905080821115611d9f57611d9e611d45565b5b92915050565b5f611daf8261136b565b9150611dba8361136b565b9250828203905081811115611dd257611dd1611d45565b5b92915050565b7f4e487b71000000000000000000000000000000000000000000000000000000005f52603260045260245ffd5b5f8160601b9050919050565b5f611e1b82611e05565b9050919050565b5f611e2c82611e11565b9050919050565b611e44611e3f8261126e565b611e22565b82525050565b5f819050919050565b611e64611e5f82611353565b611e4a565b82525050565b5f819050919050565b611e84611e7f8261136b565b611e6a565b82525050565b5f611e95828a611e33565b601482019150611ea58289611e53565b602082019150611eb58288611e53565b602082019150611ec58287611e53565b602082019150611ed58286611e53565b602082019150611ee58285611e73565b602082019150611ef58284611e73565b60208201915081905098975050505050505050565b5f611f148261136b565b91507fffffffffffffffffffffffffffffffffffffffffffffffffffffffffffffffff8203611f4657611f45611d45565b5b600182019050919050565b5f606082019050611f645f83018661135c565b611f71602083018561135c565b611f7e6040830184611374565b94935050505056fea2646970667358221220dda51675ffa587eac167eae0014c53c7777462ae4f2e72dbff86875413ac3b4f64736f6c63430008230033","linkReferences":{}},"methodIdentifiers":{"VERSION()":"ffa1ad74","attestationExists(bytes32)":"9fc0982f","attestations(bytes32)":"940992a3","deactivateProvider(address)":"bba9dc60","getProviderAttestations(address,uint256,uint256)":"51e0aa3d","isVerifiedProvider(address)":"259ed80e","owner()":"8da5cb5b","providerAttestations(address,uint256)":"a4352ff9","providers(address)":"0787bc27","registerProvider(string,string,bytes32)":"516addb1","revokeAttestation(bytes32)":"4d5e1da6","submitAttestation(bytes32,bytes32,bytes32,bytes32)":"beba6f6a","totalAttestations()":"60485742","verify(bytes32)":"75e36616","verifyByComponents(address,bytes32,bytes32,bytes32,bytes32,uint256,uint256)":"bbfca677"},"id":0}