{"abi":[{"type":"constructor","inputs":[{"name":"_attestationRegistry","type":"address","internalType":"address"}],"stateMutability":"nonpayable"},{"type":"function","name":"PROOF_WINDOW","inputs":[],"outputs":[{"name":"","type":"uint256","internalType":"uint256"}],"stateMutability":"view"},{"type":"function","name":"VERSION","inputs":[],"outputs":[{"name":"","type":"uint256","internalType":"uint256"}],"stateMutability":"view"},{"type":"function","name":"attestationRegistry","inputs":[],"outputs":[{"name":"","type":"address","internalType":"address"}],"stateMutability":"view"},{"type":"function","name":"attestationToProof","inputs":[{"name":"","type":"bytes32","internalType":"bytes32"}],"outputs":[{"name":"","type":"bytes32","internalType":"bytes32"}],"stateMutability":"view"},{"type":"function","name":"deepProveVerifier","inputs":[],"outputs":[{"name":"","type":"address","internalType":"address"}],"stateMutability":"view"},{"type":"function","name":"getProof","inputs":[{"name":"attestationId","type":"bytes32","internalType":"bytes32"}],"outputs":[{"name":"proof","type":"tuple","internalType":"struct ZKVerifier.ZKProof","components":[{"name":"attestationId","type":"bytes32","internalType":"bytes32"},{"name":"proofHash","type":"bytes32","internalType":"bytes32"},{"name":"publicInputsHash","type":"bytes32","internalType":"bytes32"},{"name":"prover","type":"address","internalType":"address"},{"name":"timestamp","type":"uint256","internalType":"uint256"},{"name":"status","type":"uint8","internalType":"enum ZKVerifier.ProofStatus"}]},{"name":"proofId","type":"bytes32","internalType":"bytes32"}],"stateMutability":"view"},{"type":"function","name":"hasValidProof","inputs":[{"name":"attestationId","type":"bytes32","internalType":"bytes32"}],"outputs":[{"name":"","type":"bool","internalType":"bool"}],"stateMutability":"view"},{"type":"function","name":"owner","inputs":[],"outputs":[{"name":"","type":"address","internalType":"address"}],"stateMutability":"view"},{"type":"function","name":"proofRequests","inputs":[{"name":"","type":"bytes32","internalType":"bytes32"}],"outputs":[{"name":"attestationId","type":"bytes32","internalType":"bytes32"},{"name":"requester","type":"address","internalType":"address"},{"name":"requestedAt","type":"uint256","internalType":"uint256"},{"name":"bounty","type":"uint256","internalType":"uint256"},{"name":"fulfilled","type":"bool","internalType":"bool"}],"stateMutability":"view"},{"type":"function","name":"proofs","inputs":[{"name":"","type":"bytes32","internalType":"bytes32"}],"outputs":[{"name":"attestationId","type":"bytes32","internalType":"bytes32"},{"name":"proofHash","type":"bytes32","internalType":"bytes32"},{"name":"publicInputsHash","type":"bytes32","internalType":"bytes32"},{"name":"prover","type":"address","internalType":"address"},{"name":"timestamp","type":"uint256","internalType":"uint256"},{"name":"status","type":"uint8","internalType":"enum ZKVerifier.ProofStatus"}],"stateMutability":"view"},{"type":"function","name":"requestProof","inputs":[{"name":"attestationId","type":"bytes32","internalType":"bytes32"}],"outputs":[{"name":"requestId","type":"bytes32","internalType":"bytes32"}],"stateMutability":"payable"},{"type":"function","name":"setDeepProveVerifier","inputs":[{"name":"verifier","type":"address","internalType":"address"}],"outputs":[],"stateMutability":"nonpayable"},{"type":"function","name":"submitProof","inputs":[{"name":"attestationId","type":"bytes32","internalType":"bytes32"},{"name":"proofHash","type":"bytes32","internalType":"bytes32"},{"name":"publicInputsHash","type":"bytes32","internalType":"bytes32"}],"outputs":[{"name":"proofId","type":"bytes32","internalType":"bytes32"}],"stateMutability":"nonpayable"},{"type":"function","name":"totalProofs","inputs":[],"outputs":[{"name":"","type":"uint256","internalType":"uint256"}],"stateMutability":"view"},{"type":"function","name":"withdrawBounty","inputs":[{"name":"requestId","type":"bytes32","internalType":"bytes32"}],"outputs":[],"stateMutability":"nonpayable"},{"type":"event","name":"DeepProveVerifierUpdated","inputs":[{"name":"newVerifier","type":"address","indexed":true,"internalType":"address"}],"anonymous":false},{"type":"event","name":"ProofRejected","inputs":[{"name":"proofId","type":"bytes32","indexed":true,"internalType":"bytes32"},{"name":"reason","type":"string","indexed":false,"internalType":"string"}],"anonymous":false},{"type":"event","name":"ProofRequested","inputs":[{"name":"attestationId","type":"bytes32","indexed":true,"internalType":"bytes32"},{"name":"requester","type":"address","indexed":true,"internalType":"address"},{"name":"bounty","type":"uint256","indexed":false,"internalType":"uint256"}],"anonymous":false},{"type":"event","name":"ProofSubmitted","inputs":[{"name":"proofId","type":"bytes32","indexed":true,"internalType":"bytes32"},{"name":"attestationId","type":"bytes32","indexed":true,"internalType":"bytes32"},{"name":"prover","type":"address","indexed":true,"internalType":"address"},{"name":"status","type":"uint8","indexed":false,"internalType":"enum ZKVerifier.ProofStatus"}],"anonymous":false},{"type":"event","name":"ProofVerified","inputs":[{"name":"proofId","type":"bytes32","indexed":true,"internalType":"bytes32"},{"name":"attestationId","type":"bytes32","indexed":true,"internalType":"bytes32"}],"anonymous":false},{"type":"error","name":"AttestationNotFound","inputs":[]},{"type":"error","name":"InvalidProofHash","inputs":[]},{"type":"error","name":"NoBountyToWithdraw","inputs":[]},{"type":"error","name":"NotOwner","inputs":[]},{"type":"error","name":"ProofAlreadyExists","inputs":[]},{"type":"error","name":"ProofAlreadyFulfilled","inputs":[]},{"type":"error","name":"ProofNotFound","inputs":[]},{"type":"error","name":"ProofWindowExpired","inputs":[]},{"type":"error","name":"ZeroAddress","inputs":[]}],"bytecode":{"object":"0x608060405234801561000f575f5ffd5b506040516118ef3803806118ef8339818101604052810190610031919061017a565b5f73ffffffffffffffffffffffffffffffffffffffff168173ffffffffffffffffffffffffffffffffffffffff1603610096576040517fd92e233d00000000000000000000000000000000000000000000000000000000815260040160405180910390fd5b3360055f6101000a81548173ffffffffffffffffffffffffffffffffffffffff021916908373ffffffffffffffffffffffffffffffffffffffff1602179055508060045f6101000a81548173ffffffffffffffffffffffffffffffffffffffff021916908373ffffffffffffffffffffffffffffffffffffffff160217905550506101a5565b5f5ffd5b5f73ffffffffffffffffffffffffffffffffffffffff82169050919050565b5f61014982610120565b9050919050565b6101598161013f565b8114610163575f5ffd5b50565b5f8151905061017481610150565b92915050565b5f6020828403121561018f5761018e61011c565b5b5f61019c84828501610166565b91505092915050565b61173d806101b25f395ff3fe6080604052600436106100e7575f3560e01c8063b410dc5611610089578063eb1ec18f11610058578063eb1ec18f14610333578063ed6d73f91461035d578063fc1a74a314610387578063ffa1ad74146103af576100e7565b8063b410dc5614610271578063c34cf5c714610299578063c57ee955146102d9578063d2fb1f4514610309576100e7565b8063444d95b0116100c5578063444d95b01461018e5780634ece5685146101cf5780638da5cb5b1461020b57806391c02e8514610235576100e7565b80631b80bb3a146100eb5780631fb4c081146101285780632ded356814610164575b5f5ffd5b3480156100f6575f5ffd5b50610111600480360381019061010c9190611015565b6103d9565b60405161011f9291906111a1565b60405180910390f35b348015610133575f5ffd5b5061014e60048036038101906101499190611015565b610509565b60405161015b91906111e2565b60405180910390f35b34801561016f575f5ffd5b50610178610581565b604051610185919061120a565b60405180910390f35b348015610199575f5ffd5b506101b460048036038101906101af9190611015565b610587565b6040516101c696959493929190611241565b60405180910390f35b3480156101da575f5ffd5b506101f560048036038101906101f091906112a0565b6105e9565b60405161020291906112f0565b60405180910390f35b348015610216575f5ffd5b5061021f610906565b60405161022c9190611309565b60405180910390f35b348015610240575f5ffd5b5061025b60048036038101906102569190611015565b61092b565b60405161026891906112f0565b60405180910390f35b34801561027c575f5ffd5b5061029760048036038101906102929190611015565b610940565b005b3480156102a4575f5ffd5b506102bf60048036038101906102ba9190611015565b610b1c565b6040516102d0959493929190611322565b60405180910390f35b6102f360048036038101906102ee9190611015565b610b79565b60405161030091906112f0565b60405180910390f35b348015610314575f5ffd5b5061031d610ccf565b60405161032a9190611309565b60405180910390f35b34801561033e575f5ffd5b50610347610cf4565b604051610354919061120a565b60405180910390f35b348015610368575f5ffd5b50610371610cfb565b60405161037e9190611309565b60405180910390f35b348015610392575f5ffd5b506103ad60048036038101906103a8919061139d565b610d20565b005b3480156103ba575f5ffd5b506103c3610e2c565b6040516103d0919061120a565b60405180910390f35b6103e1610f86565b5f60015f8481526020019081526020015f205490505f5f1b8103610431576040517f36131e5700000000000000000000000000000000000000000000000000000000815260040160405180910390fd5b5f5f8281526020019081526020015f206040518060c00160405290815f82015481526020016001820154815260200160028201548152602001600382015f9054906101000a900473ffffffffffffffffffffffffffffffffffffffff1673ffffffffffffffffffffffffffffffffffffffff1673ffffffffffffffffffffffffffffffffffffffff16815260200160048201548152602001600582015f9054906101000a900460ff1660038111156104ec576104eb6110a6565b5b60038111156104fe576104fd6110a6565b5b815250509150915091565b5f5f60015f8481526020019081526020015f205490505f5f1b8103610531575f91505061057c565b60016003811115610545576105446110a6565b5b5f5f8381526020019081526020015f206005015f9054906101000a900460ff166003811115610577576105766110a6565b5b149150505b919050565b60065481565b5f602052805f5260405f205f91509050805f015490806001015490806002015490806003015f9054906101000a900473ffffffffffffffffffffffffffffffffffffffff1690806004015490806005015f9054906101000a900460ff16905086565b5f5f5f1b8303610625576040517fb780d61f00000000000000000000000000000000000000000000000000000000815260040160405180910390fd5b5f5f1b60015f8681526020019081526020015f205414610671576040517fb8cdb9bd00000000000000000000000000000000000000000000000000000000815260040160405180910390fd5b838383334260405160200161068a95949392919061144d565b6040516020818303038152906040528051906020012090505f5f90505f73ffffffffffffffffffffffffffffffffffffffff1660035f9054906101000a900473ffffffffffffffffffffffffffffffffffffffff1673ffffffffffffffffffffffffffffffffffffffff161461071e575f6107058585610e31565b905080610713576002610716565b60015b915050610723565b600190505b6040518060c001604052808681526020018581526020018481526020013373ffffffffffffffffffffffffffffffffffffffff168152602001428152602001826003811115610775576107746110a6565b5b8152505f5f8481526020019081526020015f205f820151815f015560208201518160010155604082015181600201556060820151816003015f6101000a81548173ffffffffffffffffffffffffffffffffffffffff021916908373ffffffffffffffffffffffffffffffffffffffff1602179055506080820151816004015560a0820151816005015f6101000a81548160ff0219169083600381111561081e5761081d6110a6565b5b02179055509050508160015f8781526020019081526020015f208190555060065f81548092919061084e906114d8565b91905055503373ffffffffffffffffffffffffffffffffffffffff1685837f320ead05ad9048177afafbdf8ffca985f14f827ef51add7e0887ad3b990fa7c88460405161089b919061151f565b60405180910390a4600160038111156108b7576108b66110a6565b5b8160038111156108ca576108c96110a6565b5b036108fe5784827f5dc8a391068dd459d2755a0987befab7cd3a83d37bee6a935a1684030d24327f60405160405180910390a35b509392505050565b60055f9054906101000a900473ffffffffffffffffffffffffffffffffffffffff1681565b6001602052805f5260405f205f915090505481565b5f60025f8381526020019081526020015f2090503373ffffffffffffffffffffffffffffffffffffffff16816001015f9054906101000a900473ffffffffffffffffffffffffffffffffffffffff1673ffffffffffffffffffffffffffffffffffffffff16146109dc576040517f30cd747100000000000000000000000000000000000000000000000000000000815260040160405180910390fd5b806004015f9054906101000a900460ff1615610a24576040517f44f04b7d00000000000000000000000000000000000000000000000000000000815260040160405180910390fd5b5f816003015490505f8103610a65576040517f1bd9b8d500000000000000000000000000000000000000000000000000000000815260040160405180910390fd5b5f82600301819055505f3373ffffffffffffffffffffffffffffffffffffffff1682604051610a9390611565565b5f6040518083038185875af1925050503d805f8114610acd576040519150601f19603f3d011682016040523d82523d5f602084013e610ad2565b606091505b5050905080610b16576040517f08c379a0000000000000000000000000000000000000000000000000000000008152600401610b0d906115d3565b60405180910390fd5b50505050565b6002602052805f5260405f205f91509050805f015490806001015f9054906101000a900473ffffffffffffffffffffffffffffffffffffffff1690806002015490806003015490806004015f9054906101000a900460ff16905085565b5f813342604051602001610b8f939291906115f1565b6040516020818303038152906040528051906020012090506040518060a001604052808381526020013373ffffffffffffffffffffffffffffffffffffffff1681526020014281526020013481526020015f151581525060025f8381526020019081526020015f205f820151815f01556020820151816001015f6101000a81548173ffffffffffffffffffffffffffffffffffffffff021916908373ffffffffffffffffffffffffffffffffffffffff16021790555060408201518160020155606082015181600301556080820151816004015f6101000a81548160ff0219169083151502179055509050503373ffffffffffffffffffffffffffffffffffffffff16827f750c204f7c406861c6a2bf024ba79a44d9fb9669575cbafe0e9872d5b73334c534604051610cc2919061120a565b60405180910390a3919050565b60035f9054906101000a900473ffffffffffffffffffffffffffffffffffffffff1681565b6201518081565b60045f9054906101000a900473ffffffffffffffffffffffffffffffffffffffff1681565b60055f9054906101000a900473ffffffffffffffffffffffffffffffffffffffff1673ffffffffffffffffffffffffffffffffffffffff163373ffffffffffffffffffffffffffffffffffffffff1614610da6576040517f30cd747100000000000000000000000000000000000000000000000000000000815260040160405180910390fd5b8060035f6101000a81548173ffffffffffffffffffffffffffffffffffffffff021916908373ffffffffffffffffffffffffffffffffffffffff1602179055508073ffffffffffffffffffffffffffffffffffffffff167f539fd5fd2378ca203c81e631f660370a1f025db784b2dbf9a387315519dc890060405160405180910390a250565b600181565b5f5f5f60035f9054906101000a900473ffffffffffffffffffffffffffffffffffffffff1673ffffffffffffffffffffffffffffffffffffffff168585604051602401610e7f92919061162d565b6040516020818303038152906040527f4e8fee00000000000000000000000000000000000000000000000000000000007bffffffffffffffffffffffffffffffffffffffffffffffffffffffff19166020820180517bffffffffffffffffffffffffffffffffffffffffffffffffffffffff8381831617835250505050604051610f09919061169c565b5f60405180830381855afa9150503d805f8114610f41576040519150601f19603f3d011682016040523d82523d5f602084013e610f46565b606091505b5091509150811580610f5857505f8151145b15610f67575f92505050610f80565b80806020019051810190610f7b91906116dc565b925050505b92915050565b6040518060c001604052805f81526020015f81526020015f81526020015f73ffffffffffffffffffffffffffffffffffffffff1681526020015f81526020015f6003811115610fd857610fd76110a6565b5b81525090565b5f5ffd5b5f819050919050565b610ff481610fe2565b8114610ffe575f5ffd5b50565b5f8135905061100f81610feb565b92915050565b5f6020828403121561102a57611029610fde565b5b5f61103784828501611001565b91505092915050565b61104981610fe2565b82525050565b5f73ffffffffffffffffffffffffffffffffffffffff82169050919050565b5f6110788261104f565b9050919050565b6110888161106e565b82525050565b5f819050919050565b6110a08161108e565b82525050565b7f4e487b71000000000000000000000000000000000000000000000000000000005f52602160045260245ffd5b600481106110e4576110e36110a6565b5b50565b5f8190506110f4826110d3565b919050565b5f611103826110e7565b9050919050565b611113816110f9565b82525050565b60c082015f82015161112d5f850182611040565b5060208201516111406020850182611040565b5060408201516111536040850182611040565b506060820151611166606085018261107f565b5060808201516111796080850182611097565b5060a082015161118c60a085018261110a565b50505050565b61119b81610fe2565b82525050565b5f60e0820190506111b45f830185611119565b6111c160c0830184611192565b9392505050565b5f8115159050919050565b6111dc816111c8565b82525050565b5f6020820190506111f55f8301846111d3565b92915050565b6112048161108e565b82525050565b5f60208201905061121d5f8301846111fb565b92915050565b61122c8161106e565b82525050565b61123b816110f9565b82525050565b5f60c0820190506112545f830189611192565b6112616020830188611192565b61126e6040830187611192565b61127b6060830186611223565b61128860808301856111fb565b61129560a0830184611232565b979650505050505050565b5f5f5f606084860312156112b7576112b6610fde565b5b5f6112c486828701611001565b93505060206112d586828701611001565b92505060406112e686828701611001565b9150509250925092565b5f6020820190506113035f830184611192565b92915050565b5f60208201905061131c5f830184611223565b92915050565b5f60a0820190506113355f830188611192565b6113426020830187611223565b61134f60408301866111fb565b61135c60608301856111fb565b61136960808301846111d3565b9695505050505050565b61137c8161106e565b8114611386575f5ffd5b50565b5f8135905061139781611373565b92915050565b5f602082840312156113b2576113b1610fde565b5b5f6113bf84828501611389565b91505092915050565b5f819050919050565b6113e26113dd82610fe2565b6113c8565b82525050565b5f8160601b9050919050565b5f6113fe826113e8565b9050919050565b5f61140f826113f4565b9050919050565b6114276114228261106e565b611405565b82525050565b5f819050919050565b6114476114428261108e565b61142d565b82525050565b5f61145882886113d1565b60208201915061146882876113d1565b60208201915061147882866113d1565b6020820191506114888285611416565b6014820191506114988284611436565b6020820191508190509695505050505050565b7f4e487b71000000000000000000000000000000000000000000000000000000005f52601160045260245ffd5b5f6114e28261108e565b91507fffffffffffffffffffffffffffffffffffffffffffffffffffffffffffffffff8203611514576115136114ab565b5b600182019050919050565b5f6020820190506115325f830184611232565b92915050565b5f81905092915050565b50565b5f6115505f83611538565b915061155b82611542565b5f82019050919050565b5f61156f82611545565b9150819050919050565b5f82825260208201905092915050565b7f455448207472616e73666572206661696c6564000000000000000000000000005f82015250565b5f6115bd601383611579565b91506115c882611589565b602082019050919050565b5f6020820190508181035f8301526115ea816115b1565b9050919050565b5f6115fc82866113d1565b60208201915061160c8285611416565b60148201915061161c8284611436565b602082019150819050949350505050565b5f6040820190506116405f830185611192565b61164d6020830184611192565b9392505050565b5f81519050919050565b8281835e5f83830152505050565b5f61167682611654565b6116808185611538565b935061169081856020860161165e565b80840191505092915050565b5f6116a7828461166c565b915081905092915050565b6116bb816111c8565b81146116c5575f5ffd5b50565b5f815190506116d6816116b2565b92915050565b5f602082840312156116f1576116f0610fde565b5b5f6116fe848285016116c8565b9150509291505056fea26469706673582212207c4713342585374ed3f774071cd5535d16f7351c1f714977440d4b34c0d7731764736f6c63430008230033","linkReferences":{}},"methodIdentifiers":{"PROOF_WINDOW()":"eb1ec18f","VERSION()":"ffa1ad74","attestationRegistry()":"ed6d73f9","attestationToProof(bytes32)":"91c02e85","deepProveVerifier()":"d2fb1f45","getProof(bytes32)":"1b80bb3a","hasValidProof(bytes32)":"1fb4c081","owner()":"8da5cb5b","proofRequests(bytes32)":"c34cf5c7","proofs(bytes32)":"444d95b0","requestProof(bytes32)":"c57ee955","setDeepProveVerifier(address)":"fc1a74a3","submitProof(bytes32,bytes32,bytes32)":"4ece5685","totalProofs()":"2ded3568","withdrawBounty(bytes32)":"b410dc56"},"id":0}