{"abi":[{"type":"constructor","inputs":[],"stateMutability":"nonpayable"},{"type":"function","name":"COMPLIANCE_VALIDITY","inputs":[],"outputs":[{"name":"","type":"uint256","internalType":"uint256"}],"stateMutability":"view"},{"type":"function","name":"EU_ACT_DEADLINE","inputs":[],"outputs":[{"name":"","type":"uint256","internalType":"uint256"}],"stateMutability":"view"},{"type":"function","name":"VERSION","inputs":[],"outputs":[{"name":"","type":"uint256","internalType":"uint256"}],"stateMutability":"view"},{"type":"function","name":"approveAuditor","inputs":[{"name":"auditor","type":"address","internalType":"address"}],"outputs":[],"stateMutability":"nonpayable"},{"type":"function","name":"approvedAuditors","inputs":[{"name":"","type":"address","internalType":"address"}],"outputs":[{"name":"","type":"bool","internalType":"bool"}],"stateMutability":"view"},{"type":"function","name":"auditModel","inputs":[{"name":"modelHash","type":"bytes32","internalType":"bytes32"},{"name":"passed","type":"bool","internalType":"bool"},{"name":"findingsURI","type":"string","internalType":"string"}],"outputs":[],"stateMutability":"nonpayable"},{"type":"function","name":"audits","inputs":[{"name":"","type":"bytes32","internalType":"bytes32"},{"name":"","type":"uint256","internalType":"uint256"}],"outputs":[{"name":"modelHash","type":"bytes32","internalType":"bytes32"},{"name":"auditor","type":"address","internalType":"address"},{"name":"passed","type":"bool","internalType":"bool"},{"name":"findings","type":"string","internalType":"string"},{"name":"auditedAt","type":"uint256","internalType":"uint256"}],"stateMutability":"view"},{"type":"function","name":"checkCompliance","inputs":[{"name":"modelHash","type":"bytes32","internalType":"bytes32"}],"outputs":[{"name":"compliant","type":"bool","internalType":"bool"},{"name":"record","type":"tuple","internalType":"struct AIActCompliance.ModelRecord","components":[{"name":"modelHash","type":"bytes32","internalType":"bytes32"},{"name":"modelName","type":"string","internalType":"string"},{"name":"version","type":"string","internalType":"string"},{"name":"provider","type":"address","internalType":"address"},{"name":"riskCategory","type":"uint8","internalType":"enum AIActCompliance.RiskCategory"},{"name":"status","type":"uint8","internalType":"enum AIActCompliance.ComplianceStatus"},{"name":"trainingDataHash","type":"bytes32","internalType":"bytes32"},{"name":"trainingDataURI","type":"string","internalType":"string"},{"name":"datasetSizeBytes","type":"uint256","internalType":"uint256"},{"name":"dataCategories","type":"string[]","internalType":"string[]"},{"name":"containsPersonalData","type":"bool","internalType":"bool"},{"name":"intendedPurpose","type":"string","internalType":"string"},{"name":"limitations","type":"string[]","internalType":"string[]"},{"name":"humanOversightMeasures","type":"string","internalType":"string"},{"name":"evaluationHash","type":"bytes32","internalType":"bytes32"},{"name":"registeredAt","type":"uint256","internalType":"uint256"},{"name":"lastAuditAt","type":"uint256","internalType":"uint256"},{"name":"expiresAt","type":"uint256","internalType":"uint256"}]}],"stateMutability":"view"},{"type":"function","name":"getAuditHistory","inputs":[{"name":"modelHash","type":"bytes32","internalType":"bytes32"}],"outputs":[{"name":"","type":"tuple[]","internalType":"struct AIActCompliance.ComplianceAudit[]","components":[{"name":"modelHash","type":"bytes32","internalType":"bytes32"},{"name":"auditor","type":"address","internalType":"address"},{"name":"passed","type":"bool","internalType":"bool"},{"name":"findings","type":"string","internalType":"string"},{"name":"auditedAt","type":"uint256","internalType":"uint256"}]}],"stateMutability":"view"},{"type":"function","name":"getComplianceStatus","inputs":[{"name":"modelHash","type":"bytes32","internalType":"bytes32"}],"outputs":[{"name":"status","type":"uint8","internalType":"enum AIActCompliance.ComplianceStatus"},{"name":"riskCategory","type":"uint8","internalType":"enum AIActCompliance.RiskCategory"},{"name":"expiresAt","type":"uint256","internalType":"uint256"},{"name":"deadlineCompliant","type":"bool","internalType":"bool"}],"stateMutability":"view"},{"type":"function","name":"getProviderModels","inputs":[{"name":"provider","type":"address","internalType":"address"}],"outputs":[{"name":"","type":"bytes32[]","internalType":"bytes32[]"}],"stateMutability":"view"},{"type":"function","name":"models","inputs":[{"name":"","type":"bytes32","internalType":"bytes32"}],"outputs":[{"name":"modelHash","type":"bytes32","internalType":"bytes32"},{"name":"modelName","type":"string","internalType":"string"},{"name":"version","type":"string","internalType":"string"},{"name":"provider","type":"address","internalType":"address"},{"name":"riskCategory","type":"uint8","internalType":"enum AIActCompliance.RiskCategory"},{"name":"status","type":"uint8","internalType":"enum AIActCompliance.ComplianceStatus"},{"name":"trainingDataHash","type":"bytes32","internalType":"bytes32"},{"name":"trainingDataURI","type":"string","internalType":"string"},{"name":"datasetSizeBytes","type":"uint256","internalType":"uint256"},{"name":"containsPersonalData","type":"bool","internalType":"bool"},{"name":"intendedPurpose","type":"string","internalType":"string"},{"name":"humanOversightMeasures","type":"string","internalType":"string"},{"name":"evaluationHash","type":"bytes32","internalType":"bytes32"},{"name":"registeredAt","type":"uint256","internalType":"uint256"},{"name":"lastAuditAt","type":"uint256","internalType":"uint256"},{"name":"expiresAt","type":"uint256","internalType":"uint256"}],"stateMutability":"view"},{"type":"function","name":"owner","inputs":[],"outputs":[{"name":"","type":"address","internalType":"address"}],"stateMutability":"view"},{"type":"function","name":"providerModels","inputs":[{"name":"","type":"address","internalType":"address"},{"name":"","type":"uint256","internalType":"uint256"}],"outputs":[{"name":"","type":"bytes32","internalType":"bytes32"}],"stateMutability":"view"},{"type":"function","name":"registerModel","inputs":[{"name":"modelHash","type":"bytes32","internalType":"bytes32"},{"name":"modelName","type":"string","internalType":"string"},{"name":"version","type":"string","internalType":"string"},{"name":"riskCategory","type":"uint8","internalType":"enum AIActCompliance.RiskCategory"},{"name":"trainingDataHash","type":"bytes32","internalType":"bytes32"},{"name":"trainingDataURI","type":"string","internalType":"string"},{"name":"datasetSizeBytes","type":"uint256","internalType":"uint256"},{"name":"dataCategories","type":"string[]","internalType":"string[]"},{"name":"containsPersonalData","type":"bool","internalType":"bool"},{"name":"intendedPurpose","type":"string","internalType":"string"},{"name":"humanOversightMeasures","type":"string","internalType":"string"},{"name":"evaluationHash","type":"bytes32","internalType":"bytes32"}],"outputs":[],"stateMutability":"nonpayable"},{"type":"function","name":"revokeAuditor","inputs":[{"name":"auditor","type":"address","internalType":"address"}],"outputs":[],"stateMutability":"nonpayable"},{"type":"function","name":"totalModels","inputs":[],"outputs":[{"name":"","type":"uint256","internalType":"uint256"}],"stateMutability":"view"},{"type":"function","name":"updateTrainingData","inputs":[{"name":"modelHash","type":"bytes32","internalType":"bytes32"},{"name":"newTrainingDataHash","type":"bytes32","internalType":"bytes32"},{"name":"newTrainingDataURI","type":"string","internalType":"string"}],"outputs":[],"stateMutability":"nonpayable"},{"type":"event","name":"AuditorApproved","inputs":[{"name":"auditor","type":"address","indexed":true,"internalType":"address"}],"anonymous":false},{"type":"event","name":"AuditorRevoked","inputs":[{"name":"auditor","type":"address","indexed":true,"internalType":"address"}],"anonymous":false},{"type":"event","name":"ComplianceAudited","inputs":[{"name":"modelHash","type":"bytes32","indexed":true,"internalType":"bytes32"},{"name":"auditor","type":"address","indexed":true,"internalType":"address"},{"name":"passed","type":"bool","indexed":false,"internalType":"bool"},{"name":"expiresAt","type":"uint256","indexed":false,"internalType":"uint256"}],"anonymous":false},{"type":"event","name":"ModelRegistered","inputs":[{"name":"modelHash","type":"bytes32","indexed":true,"internalType":"bytes32"},{"name":"provider","type":"address","indexed":true,"internalType":"address"},{"name":"riskCategory","type":"uint8","indexed":false,"internalType":"enum AIActCompliance.RiskCategory"},{"name":"trainingDataHash","type":"bytes32","indexed":false,"internalType":"bytes32"}],"anonymous":false},{"type":"event","name":"TrainingDataUpdated","inputs":[{"name":"modelHash","type":"bytes32","indexed":true,"internalType":"bytes32"},{"name":"newTrainingDataHash","type":"bytes32","indexed":false,"internalType":"bytes32"}],"anonymous":false},{"type":"error","name":"MissingTrainingDataForHighRisk","inputs":[]},{"type":"error","name":"ModelAlreadyRegistered","inputs":[]},{"type":"error","name":"ModelNotFound","inputs":[]},{"type":"error","name":"NotApprovedAuditor","inputs":[]},{"type":"error","name":"NotModelProvider","inputs":[]},{"type":"error","name":"NotOwner","inputs":[]},{"type":"error","name":"UnacceptableRiskCategoryForbidden","inputs":[]}],"bytecode":{"object":"0x60808060405234604257600480546001600160a01b031916339081179091555f908152600360205260409020805460ff19166001179055611eb690816100478239f35b5f80fdfe6080806040526004361015610012575f80fd5b5f3560e01c908163017d7196146118f357508063075b143e146118625780630b5be2c21461184457806318ab3aa0146117ec578063195638a4146117ce57806331cb01591461171a578063354c8461146115cb5780636b57f2621461158e578063849d26bb146113105780638da5cb5b146112e8578063902a821114611276578063924ea008146111f2578063b402980b14611174578063c44eb82c14610fc4578063e211d8ec146103eb578063e236f46b14610280578063fce55a0d146101015763ffa1ad74146100e2575f80fd5b346100fd575f3660031901126100fd57602060405160018152f35b5f80fd5b346100fd5760203660031901126100fd5761011d600435611c99565b906040519182911515825260406020830152805160408301526102206102516102396102216101fb6101d761017c610166602089015161024060608c01526102808b0190611a6a565b60408901518a8203603f190160808c0152611a6a565b60608801516001600160a01b031660a08a0152608088015161019d81611ae6565b60c08a015260a08801516101b081611ae6565b60e08a015260c08801516101008a015260e0880151603f198a8303016101208b0152611a6a565b610100870151610140890152610120870151888203603f19016101608a0152611b04565b6101408601511515610180880152610160860151878203603f19016101a0890152611a6a565b610180850151868203603f19016101c0880152611b04565b6101a0840151858203603f19016101e0870152611a6a565b916101c08101516102008501526101e08101518285015261020081015161024085015201516102608301520390f35b346100fd5760203660031901126100fd576004355f525f60205260405f20805490600181016102ae906119ca565b906102bb600282016119ca565b60038201546004830154929060ff60a082901c166102db600584016119ca565b6006840154600885015460ff166102f4600987016119ca565b92610301600b88016119ca565b94600c88015499600d89015497600e8a015499600f01549a6040519e8f9e8f918252602082016102009052610200820161033a91611a6a565b90808203906040015261034c91611a6a565b6001600160a01b03821660608f0152928d61036682611ae6565b608001528060a81c60ff1661037a90611ae6565b60a81c60ff1660a08d015260c08c01528a810360e08c015261039b91611a6a565b916101008a015215156101208901528781036101408901526103bc91611a6a565b8681036101608801526103ce91611a6a565b936101808601526101a08501526101c08401526101e08301520390f35b346100fd576101803660031901126100fd576024356001600160401b0381116100fd5761041c903690600401611ab9565b906044356001600160401b0381116100fd5761043c903690600401611ab9565b929091600560643510156100fd5760a4356001600160401b0381116100fd57610469903690600401611ab9565b916001600160401b0360e435116100fd5736602360e4350112156100fd576001600160401b0360e43560040135116100fd5736602460e4356004013560051b60e4350101116100fd576101043580151581036100fd57610124356001600160401b0381116100fd576104df903690600401611ab9565b919096610144356001600160401b0381116100fd57610502903690600401611ab9565b9590966004355f525f602052600d60405f200154610fb557610525606435611ae6565b600460643514610fa65761053a606435611ae6565b60036064351480610f9c575b610f8d5761058e6105c29360209c8d6105836040519a610566838d6119a9565b5f8c526040519e8f6105778161198d565b60043590523691611b97565b908d01523691611b97565b60408a01523360608a01526105a4606435611ae6565b60643560808a0152600160a08a015260843560c08a01523691611b97565b60e087015260c4356101008701526105df60e43560040135611b5c565b6105ec60405191826119a9565b60e435600481013582526024018982015b602460e4356004013560051b60e43501018210610f4c575050918697916106369361012061064999015215156101408901523691611b97565b6101608601526101808501523691611b97565b6101a0820152610164356101c0820152426101e08201525f6102008201525f6102208201526004355f525f825260405f2081518155828201519182516001600160401b038111610a4d576106ad816106a4600186015461193a565b60018601611bf7565b84601f8211600114610ee35781906106dc9394955f92610e06575b50508160011b915f199060031b1c19161790565b60018301555b60408101519182516001600160401b038111610a4d5761071281610709600285015461193a565b60028501611bf7565b84601f8211600114610e7a5781906107409394955f92610e065750508160011b915f199060031b1c19161790565b60028201555b60608201516003820180546001600160a01b0319166001600160a01b039290921691909117815560808301516107b2919061078081611ae6565b61078981611ae6565b815460ff60a01b191660a091821b60ff60a01b16178255840151906107ad82611ae6565b611b73565b60c0820151600482015560e08201519182516001600160401b038111610a4d576107ec816107e3600586015461193a565b60058601611bf7565b84601f8211600114610e1157819061081a9394955f92610e065750508160011b915f199060031b1c19161790565b60058301555b610100810151600683015560078201610120820151805190600160401b8211610a4d5785908354838555808410610d7e575b5001915f52845f205f925b828410610cac575050505060088201610140820151151560ff80198354169116179055600982016101608201518051906001600160401b038211610a4d576108af826108a9855461193a565b85611bf7565b8590601f8311600114610c49576108dc92915f9183610c3e5750508160011b915f199060031b1c19161790565b90555b600a8201610180820151805190600160401b8211610a4d5785908354838555808410610bb6575b5001915f52845f205f925b828410610ad65750505050600b82016101a08201518051906001600160401b038211610a4d57610945826108a9855461193a565b8590601f8311600114610a6c5782600f9593610220959361097a935f92610a615750508160011b915f199060031b1c19161790565b90555b6101c0810151600c8501556101e0810151600d850155610200810151600e8501550151910155335f526002815260405f208054600160401b811015610a4d576109cb91600182018155611aa4565b81549060031b90600435821b915f19901b19161790556005545f198114610a395760010160055560405190610a01606435611ae6565b60643582526084359082015233907f8bf5e97f2386469b70cbffd949f2b789de0c2c638ad02404d9589e6ee58739f4604060043592a3005b634e487b7160e01b5f52601160045260245ffd5b634e487b7160e01b5f52604160045260245ffd5b0151905089806106c8565b90601f19831691845f52875f20925f5b89828210610ac0575050926001928592600f9896610220989610610aa8575b505050811b01905561097d565b01515f1960f88460031b161c19169055888080610a9b565b6001859682939686015181550195019301610a7c565b80519081516001600160401b038111610a4d578892610aff82610af9875461193a565b87611bf7565b8390601f8311600114610b4c578260019593869593610b32935f92610b415750508160011b915f199060031b1c19161790565b85555b01920193019290610911565b015190508d806106c8565b93929190601f19821690865f52845f20915f5b818110610b9e575091839160019788979695889510610b86575b505050811b018555610b35565b01515f1960f88460031b161c191690558c8080610b79565b8783015184558d966001909401939283019201610b5f565b845f528380845f20019103905f5b828110610bd2575050610906565b81929394508060019201610be6815461193a565b908b82610bfc575b505050019088939291610bc4565b82601f5f94118614610c14575050555b8a808b610bee565b828452908320610c2f91601f0160051c841901908601611bdc565b808252818c8120915555610c0c565b0151905087806106c8565b90601f19831691845f52875f20925f5b89828210610c96575050908460019594939210610c7e575b505050811b0190556108df565b01515f1960f88460031b161c19169055868080610c71565b6001859682939686015181550195019301610c59565b80519081516001600160401b038111610a4d578892610ccf82610af9875461193a565b8390601f8311600114610d11578260019593869593610d02935f92610b415750508160011b915f199060031b1c19161790565b85555b0192019301929061085d565b90855f95949552835f20915f5b601f1985168110610d665750926001959286959492869383601f19811610610d4e575b505050811b018555610d05565b01515f1960f88460031b161c191690558c8080610d41565b8183015184558c956001909401939283019201610d1e565b845f528380845f20019103905f5b828110610d9a575050610852565b81929394508060019201610dae815461193a565b908b82610dc4575b505050019088939291610d8c565b82601f5f94118614610ddc575050555b8a808b610db6565b828452908320610df791601f0160051c841901908601611bdc565b808252818c8120915555610dd4565b0151905086806106c8565b600584015f52855f20905f5b87601f1985168210610e64575050600193949583601f19811610610e4c575b505050811b016005830155610820565b01515f1960f88460031b161c19169055858080610e3c565b600183948293948a015181550193019101610e1d565b600283015f52855f20905f5b87601f1985168210610ecd575050600193949583601f19811610610eb5575b505050811b016002820155610746565b01515f1960f88460031b161c19169055858080610ea5565b600183948293948a015181550193019101610e86565b600184015f52855f20905f5b87601f1985168210610f36575050600193949583601f19811610610f1e575b505050811b0160018301556106e2565b01515f1960f88460031b161c19169055858080610f0e565b600183948293948a015181550193019101610eef565b81356001600160401b0381116100fd5760e43501366043820112156100fd578b91610f8283923690604460248201359101611b97565b8152019101906105fd565b6303490b6960e51b5f5260045ffd5b5060843515610546565b635c08950f60e11b5f5260045ffd5b631e3a8e1f60e21b5f5260045ffd5b346100fd5760603660031901126100fd576004356024356044356001600160401b0381116100fd57610ffa903690600401611ab9565b90835f525f60205260405f2091600d83015415611165576003830180549093906001600160a01b031633036111565780856004600593015501916001600160401b038211610a4d57611050826108a9855461193a565b5f90601f83116001146110cc5782602095937ff88bdcbb725b5996dd5fed5a89736ed6b058e829281a3378e7b81a2b5da28e629795936110a4935f926110c15750508160011b915f199060031b1c19161790565b90555b805460ff60a81b1916600160a81b179055604051908152a2005b0135905089806106c8565b601f19831691845f5260205f20925f5b81811061113e5750926001928592602098967ff88bdcbb725b5996dd5fed5a89736ed6b058e829281a3378e7b81a2b5da28e629a989610611125575b505050811b0190556110a7565b01355f19600384901b60f8161c19169055888080611118565b919360206001819287870135815501950192016110dc565b6338fe44d160e11b5f5260045ffd5b63897b047d60e01b5f5260045ffd5b346100fd5760203660031901126100fd5761118d611a8e565b6004546001600160a01b031633036111e3576001600160a01b03165f818152600360205260408120805460ff191690557feb2a2eb059f7ce22cdb9ce6710a0df23c2e8d5ca169ee77629faa99f8c788a019080a2005b6330cd747160e01b5f5260045ffd5b346100fd5760203660031901126100fd576004355f525f602052608060405f2060038101549060ff808360a81c169260a01c1690600d600f820154910154918215159283611267575b506040519361124981611ae6565b845261125481611ae6565b6020840152604083015215156060820152f35b63688c0380101592508561123b565b346100fd5760203660031901126100fd5761128f611a8e565b6004546001600160a01b031633036111e3576001600160a01b03165f818152600360205260408120805460ff191660011790557fde3585b383dae1128c6c0978af133a38627ab7937604b9ee052524ee3d494c529080a2005b346100fd575f3660031901126100fd576004546040516001600160a01b039091168152602090f35b346100fd5760603660031901126100fd5760043560243590811515918281036100fd576044356001600160401b0381116100fd57611352903690600401611ab9565b335f52600360205260ff60405f2054161561157f57835f525f60205260405f2092600d840154156111655780156115755761139260025b60038601611b73565b42600e8501551561156c576301e133804201804211610a3957600f90935b01928355835f52600160205260405f2090604051926113ce84611972565b8584526113eb602085019133835260408601938985523691611b97565b916060850192835260808501934285528054600160401b811015610a4d576114189160018201815561190d565b959095611559575185559051600185018054925160ff60a01b90151560a01b166001600160a01b039092166001600160a81b03199093169290921717905551805160028401916001600160401b038211610a4d5761147a826108a9855461193a565b602090601f83116001146114f35791806114ad9260039695945f926114e85750508160011b915f199060031b1c19161790565b90555b519101555460405192835260208301527f0e2c4b689195add0c81445e617340b4789027a65cbb804fd9fe514cddfda1e2b60403393a3005b015190508a806106c8565b90601f19831691845f52815f20925f5b81811061154157509160019391856003989796941061152a575b505050811b0190556114b0565b01515f1983881b60f8161c1916905589808061151d565b92936020600181928786015181550195019301611503565b634e487b7160e01b5f525f60045260245ffd5b600f5f936113b0565b6113926003611389565b638775fd1d60e01b5f5260045ffd5b346100fd5760203660031901126100fd576001600160a01b036115af611a8e565b165f526003602052602060ff60405f2054166040519015158152f35b346100fd5760203660031901126100fd576004355f52600160205260405f208054906115f682611b5c565b9161160460405193846119a9565b8083526020830180925f5260205f205f915b8383106116bd57848660405191829160208301906020845251809152604083019060408160051b85010192915f905b82821061165457505050500390f35b919360019193955060208091603f1989820301855287519081518152848060a01b038383015116838201526040820151151560408201526080806116a7606085015160a0606086015260a0850190611a6a565b9301519101529601920192018594939192611645565b600460206001926040516116d081611972565b8554815260ff85870154868060a01b0381168584015260a01c16151560408201526116fd600287016119ca565b606082015260038601546080820152815201920192019190611616565b346100fd5760203660031901126100fd576001600160a01b0361173b611a8e565b165f52600260205260405f20604051806020835491828152019081935f5260205f20905f5b8181106117b857505050816117769103826119a9565b604051918291602083019060208452518091526040830191905f5b81811061179f575050500390f35b8251845285945060209384019390920191600101611791565b8254845260209093019260019283019201611760565b346100fd575f3660031901126100fd5760206040516301e133808152f35b346100fd5760403660031901126100fd57611805611a8e565b6001600160a01b03165f908152600260205260409020805460243591908210156100fd5760209161183591611aa4565b90549060031b1c604051908152f35b346100fd575f3660031901126100fd57602060405163688c03808152f35b346100fd5760403660031901126100fd576024356004355f52600160205260405f209081548110156100fd576118979161190d565b5080546001820154916118e960036118b1600284016119ca565b9201549160ff604051958695865260018060a01b038116602087015260a01c161515604085015260a0606085015260a0840190611a6a565b9060808301520390f35b346100fd575f3660031901126100fd576020906005548152f35b8054821015611926575f5260205f209060021b01905f90565b634e487b7160e01b5f52603260045260245ffd5b90600182811c92168015611968575b602083101461195457565b634e487b7160e01b5f52602260045260245ffd5b91607f1691611949565b60a081019081106001600160401b03821117610a4d57604052565b61024081019081106001600160401b03821117610a4d57604052565b90601f801991011681019081106001600160401b03821117610a4d57604052565b9060405191825f8254926119dd8461193a565b8084529360018116908115611a485750600114611a04575b50611a02925003836119a9565b565b90505f9291925260205f20905f915b818310611a2c575050906020611a02928201015f6119f5565b6020919350806001915483858901015201910190918492611a13565b905060209250611a0294915060ff191682840152151560051b8201015f6119f5565b805180835260209291819084018484015e5f828201840152601f01601f1916010190565b600435906001600160a01b03821682036100fd57565b8054821015611926575f5260205f2001905f90565b9181601f840112156100fd578235916001600160401b0383116100fd57602083818601950101116100fd57565b60051115611af057565b634e487b7160e01b5f52602160045260245ffd5b9080602083519182815201916020808360051b8301019401925f915b838310611b2f57505050505090565b9091929394602080611b4d600193601f198682030187528951611a6a565b97019301930191939290611b20565b6001600160401b038111610a4d5760051b60200190565b90611b7d81611ae6565b815460ff60a81b191660a89190911b60ff60a81b16179055565b9291926001600160401b038211610a4d5760405191611bc0601f8201601f1916602001846119a9565b8294818452818301116100fd578281602093845f960137010152565b5f5b828110611bea57505050565b5f82820155600101611bde565b91601f8211611c0557505050565b808211611c1157505050565b611a02925f5260205f20916020601f830160051c9210611c3c575b601f82910160051c039101611bdc565b5f9150611c2c565b908154611c5081611b5c565b92611c5e60405194856119a9565b81845260208401905f5260205f205f915b838310611c7c5750505050565b600160208192611c8b856119ca565b815201920192019190611c6f565b5f610220604051611ca98161198d565b82815260606020820152606060408201528260608201528260808201528260a08201528260c0820152606060e0820152826101008201526060610120820152826101408201526060610160820152606061018082015260606101a0820152826101c0820152826101e08201528261020082015201525f525f60205260405f20604051611d348161198d565b81548152611d44600183016119ca565b6020820152611d55600283016119ca565b604082015260038201546001600160a01b038116606083015260ff9060a081901c8216611d8181611ae6565b608084015260a81c16611d9381611ae6565b60a0820152600482015460c0820152611dae600583016119ca565b60e08201526006820154610100820152611dca60078301611c44565b61012082015260ff6008830154161515610140820152611dec600983016119ca565b610160820152611dfe600a8301611c44565b610180820152611e10600b83016119ca565b6101a0820152600c8201546101c0820152600f600d83015492836101e0840152600e8101546102008401520154610220820152809115611e795750600260a0820151611e5b81611ae6565b611e6481611ae6565b1480611e6d5791565b50610220810151421091565b5f9290915056fea26469706673582212205b8778d86bce6e44dc4fa4dc5ad9fec8eaa52c919b3ff5b44ea2b8009c56d61464736f6c63430008230033","linkReferences":{}},"methodIdentifiers":{"COMPLIANCE_VALIDITY()":"195638a4","EU_ACT_DEADLINE()":"0b5be2c2","VERSION()":"ffa1ad74","approveAuditor(address)":"902a8211","approvedAuditors(address)":"6b57f262","auditModel(bytes32,bool,string)":"849d26bb","audits(bytes32,uint256)":"075b143e","checkCompliance(bytes32)":"fce55a0d","getAuditHistory(bytes32)":"354c8461","getComplianceStatus(bytes32)":"924ea008","getProviderModels(address)":"31cb0159","models(bytes32)":"e236f46b","owner()":"8da5cb5b","providerModels(address,uint256)":"18ab3aa0","registerModel(bytes32,string,string,uint8,bytes32,string,uint256,string[],bool,string,string,bytes32)":"e211d8ec","revokeAuditor(address)":"b402980b","totalModels()":"017d7196","updateTrainingData(bytes32,bytes32,string)":"c44eb82c"},"id":0}